{
  "address": "0xEF4ABff8b99D003026f050B865e7963E90893531",
  "abi": [
    {
      "inputs": [],
      "stateMutability": "nonpayable",
      "type": "constructor"
    },
    {
      "inputs": [
        {
          "internalType": "uint256",
          "name": "qACsent_",
          "type": "uint256"
        },
        {
          "internalType": "uint256",
          "name": "qACNeeded_",
          "type": "uint256"
        }
      ],
      "name": "InsufficientQacSent",
      "type": "error"
    },
    {
      "inputs": [
        {
          "internalType": "uint256",
          "name": "qTPsent_",
          "type": "uint256"
        },
        {
          "internalType": "uint256",
          "name": "qTPNeeded_",
          "type": "uint256"
        }
      ],
      "name": "InsufficientQtpSent",
      "type": "error"
    },
    {
      "inputs": [
        {
          "internalType": "uint256",
          "name": "qTC_",
          "type": "uint256"
        },
        {
          "internalType": "uint256",
          "name": "tcAvailableToRedeem_",
          "type": "uint256"
        }
      ],
      "name": "InsufficientTCtoRedeem",
      "type": "error"
    },
    {
      "inputs": [
        {
          "internalType": "uint256",
          "name": "qTP_",
          "type": "uint256"
        },
        {
          "internalType": "uint256",
          "name": "tpAvailableToMint_",
          "type": "uint256"
        }
      ],
      "name": "InsufficientTPtoMint",
      "type": "error"
    },
    {
      "inputs": [
        {
          "internalType": "uint256",
          "name": "qTP_",
          "type": "uint256"
        },
        {
          "internalType": "uint256",
          "name": "tpAvailableToRedeem_",
          "type": "uint256"
        }
      ],
      "name": "InsufficientTPtoRedeem",
      "type": "error"
    },
    {
      "inputs": [],
      "name": "InvalidAddress",
      "type": "error"
    },
    {
      "inputs": [],
      "name": "InvalidValue",
      "type": "error"
    },
    {
      "inputs": [],
      "name": "Liquidated",
      "type": "error"
    },
    {
      "inputs": [
        {
          "internalType": "uint256",
          "name": "cglb_",
          "type": "uint256"
        },
        {
          "internalType": "uint256",
          "name": "covThrld_",
          "type": "uint256"
        }
      ],
      "name": "LowCoverage",
      "type": "error"
    },
    {
      "inputs": [],
      "name": "MissingBlocksToSettlement",
      "type": "error"
    },
    {
      "inputs": [],
      "name": "MissingBlocksToTCInterestPayment",
      "type": "error"
    },
    {
      "inputs": [
        {
          "internalType": "address",
          "name": "priceProviderAddress_",
          "type": "address"
        }
      ],
      "name": "MissingProviderPrice",
      "type": "error"
    },
    {
      "inputs": [],
      "name": "NotAuthorizedChanger",
      "type": "error"
    },
    {
      "inputs": [],
      "name": "NotWhenPaused",
      "type": "error"
    },
    {
      "inputs": [],
      "name": "OnlyPauser",
      "type": "error"
    },
    {
      "inputs": [],
      "name": "OnlyWhenLiquidated",
      "type": "error"
    },
    {
      "inputs": [],
      "name": "OnlyWhilePaused",
      "type": "error"
    },
    {
      "inputs": [],
      "name": "PeggedTokenAlreadyAdded",
      "type": "error"
    },
    {
      "inputs": [
        {
          "internalType": "uint256",
          "name": "qACmin_",
          "type": "uint256"
        },
        {
          "internalType": "uint256",
          "name": "qACtoRedeem_",
          "type": "uint256"
        }
      ],
      "name": "QacBelowMinimumRequired",
      "type": "error"
    },
    {
      "inputs": [],
      "name": "QacNeededMustBeGreaterThanZero",
      "type": "error"
    },
    {
      "inputs": [
        {
          "internalType": "uint256",
          "name": "qTCmin_",
          "type": "uint256"
        },
        {
          "internalType": "uint256",
          "name": "qTC_",
          "type": "uint256"
        }
      ],
      "name": "QtcBelowMinimumRequired",
      "type": "error"
    },
    {
      "inputs": [
        {
          "internalType": "uint256",
          "name": "qTPmin_",
          "type": "uint256"
        },
        {
          "internalType": "uint256",
          "name": "qTP_",
          "type": "uint256"
        }
      ],
      "name": "QtpBelowMinimumRequired",
      "type": "error"
    },
    {
      "inputs": [],
      "name": "TransferFailed",
      "type": "error"
    },
    {
      "inputs": [],
      "name": "Unstoppable",
      "type": "error"
    },
    {
      "anonymous": false,
      "inputs": [
        {
          "indexed": false,
          "internalType": "address",
          "name": "previousAdmin",
          "type": "address"
        },
        {
          "indexed": false,
          "internalType": "address",
          "name": "newAdmin",
          "type": "address"
        }
      ],
      "name": "AdminChanged",
      "type": "event"
    },
    {
      "anonymous": false,
      "inputs": [
        {
          "indexed": true,
          "internalType": "address",
          "name": "beacon",
          "type": "address"
        }
      ],
      "name": "BeaconUpgraded",
      "type": "event"
    },
    {
      "anonymous": false,
      "inputs": [],
      "name": "ContractLiquidated",
      "type": "event"
    },
    {
      "anonymous": false,
      "inputs": [
        {
          "indexed": false,
          "internalType": "uint8",
          "name": "version",
          "type": "uint8"
        }
      ],
      "name": "Initialized",
      "type": "event"
    },
    {
      "anonymous": false,
      "inputs": [
        {
          "indexed": false,
          "internalType": "address",
          "name": "account",
          "type": "address"
        }
      ],
      "name": "Paused",
      "type": "event"
    },
    {
      "anonymous": false,
      "inputs": [
        {
          "indexed": true,
          "internalType": "uint256",
          "name": "i_",
          "type": "uint256"
        },
        {
          "components": [
            {
              "internalType": "address",
              "name": "tpTokenAddress",
              "type": "address"
            },
            {
              "internalType": "address",
              "name": "priceProviderAddress",
              "type": "address"
            },
            {
              "internalType": "uint256",
              "name": "tpCtarg",
              "type": "uint256"
            },
            {
              "internalType": "uint256",
              "name": "tpMintFee",
              "type": "uint256"
            },
            {
              "internalType": "uint256",
              "name": "tpRedeemFee",
              "type": "uint256"
            },
            {
              "internalType": "uint256",
              "name": "tpEma",
              "type": "uint256"
            },
            {
              "internalType": "uint256",
              "name": "tpEmaSf",
              "type": "uint256"
            }
          ],
          "indexed": false,
          "internalType": "struct PeggedTokenParams",
          "name": "peggedTokenParams_",
          "type": "tuple"
        }
      ],
      "name": "PeggedTokenChange",
      "type": "event"
    },
    {
      "anonymous": false,
      "inputs": [],
      "name": "SettlementExecuted",
      "type": "event"
    },
    {
      "anonymous": false,
      "inputs": [
        {
          "indexed": false,
          "internalType": "uint256",
          "name": "mocGain_",
          "type": "uint256"
        },
        {
          "indexed": false,
          "internalType": "uint256[]",
          "name": "tpGain_",
          "type": "uint256[]"
        }
      ],
      "name": "SuccessFeeDistributed",
      "type": "event"
    },
    {
      "anonymous": false,
      "inputs": [
        {
          "indexed": false,
          "internalType": "uint256",
          "name": "interestAmount_",
          "type": "uint256"
        }
      ],
      "name": "TCInterestPayment",
      "type": "event"
    },
    {
      "anonymous": false,
      "inputs": [
        {
          "indexed": true,
          "internalType": "address",
          "name": "sender_",
          "type": "address"
        },
        {
          "indexed": true,
          "internalType": "address",
          "name": "recipient_",
          "type": "address"
        },
        {
          "indexed": false,
          "internalType": "uint256",
          "name": "qTC_",
          "type": "uint256"
        },
        {
          "indexed": false,
          "internalType": "uint256",
          "name": "qAC_",
          "type": "uint256"
        },
        {
          "indexed": false,
          "internalType": "uint256",
          "name": "qACfee_",
          "type": "uint256"
        },
        {
          "indexed": false,
          "internalType": "uint256",
          "name": "qFeeToken_",
          "type": "uint256"
        },
        {
          "indexed": false,
          "internalType": "uint256",
          "name": "qACVendorMarkup_",
          "type": "uint256"
        },
        {
          "indexed": false,
          "internalType": "uint256",
          "name": "qFeeTokenVendorMarkup_",
          "type": "uint256"
        },
        {
          "indexed": false,
          "internalType": "address",
          "name": "vendor",
          "type": "address"
        }
      ],
      "name": "TCMinted",
      "type": "event"
    },
    {
      "anonymous": false,
      "inputs": [
        {
          "indexed": true,
          "internalType": "address",
          "name": "sender_",
          "type": "address"
        },
        {
          "indexed": true,
          "internalType": "address",
          "name": "recipient_",
          "type": "address"
        },
        {
          "indexed": false,
          "internalType": "uint256",
          "name": "qTC_",
          "type": "uint256"
        },
        {
          "indexed": false,
          "internalType": "uint256",
          "name": "qAC_",
          "type": "uint256"
        },
        {
          "indexed": false,
          "internalType": "uint256",
          "name": "qACfee_",
          "type": "uint256"
        },
        {
          "indexed": false,
          "internalType": "uint256",
          "name": "qFeeToken_",
          "type": "uint256"
        },
        {
          "indexed": false,
          "internalType": "uint256",
          "name": "qACVendorMarkup_",
          "type": "uint256"
        },
        {
          "indexed": false,
          "internalType": "uint256",
          "name": "qFeeTokenVendorMarkup_",
          "type": "uint256"
        },
        {
          "indexed": false,
          "internalType": "address",
          "name": "vendor",
          "type": "address"
        }
      ],
      "name": "TCRedeemed",
      "type": "event"
    },
    {
      "anonymous": false,
      "inputs": [
        {
          "indexed": true,
          "internalType": "uint256",
          "name": "i_",
          "type": "uint256"
        },
        {
          "indexed": true,
          "internalType": "address",
          "name": "sender_",
          "type": "address"
        },
        {
          "indexed": true,
          "internalType": "address",
          "name": "recipient_",
          "type": "address"
        },
        {
          "indexed": false,
          "internalType": "uint256",
          "name": "qTC_",
          "type": "uint256"
        },
        {
          "indexed": false,
          "internalType": "uint256",
          "name": "qTP_",
          "type": "uint256"
        },
        {
          "indexed": false,
          "internalType": "uint256",
          "name": "qACfee_",
          "type": "uint256"
        },
        {
          "indexed": false,
          "internalType": "uint256",
          "name": "qFeeToken_",
          "type": "uint256"
        },
        {
          "indexed": false,
          "internalType": "uint256",
          "name": "qACVendorMarkup_",
          "type": "uint256"
        },
        {
          "indexed": false,
          "internalType": "uint256",
          "name": "qFeeTokenVendorMarkup_",
          "type": "uint256"
        },
        {
          "indexed": false,
          "internalType": "address",
          "name": "vendor",
          "type": "address"
        }
      ],
      "name": "TCSwappedForTP",
      "type": "event"
    },
    {
      "anonymous": false,
      "inputs": [
        {
          "indexed": true,
          "internalType": "uint256",
          "name": "i_",
          "type": "uint256"
        },
        {
          "indexed": true,
          "internalType": "address",
          "name": "sender_",
          "type": "address"
        },
        {
          "indexed": true,
          "internalType": "address",
          "name": "recipient_",
          "type": "address"
        },
        {
          "indexed": false,
          "internalType": "uint256",
          "name": "qTC_",
          "type": "uint256"
        },
        {
          "indexed": false,
          "internalType": "uint256",
          "name": "qTP_",
          "type": "uint256"
        },
        {
          "indexed": false,
          "internalType": "uint256",
          "name": "qAC_",
          "type": "uint256"
        },
        {
          "indexed": false,
          "internalType": "uint256",
          "name": "qACfee_",
          "type": "uint256"
        },
        {
          "indexed": false,
          "internalType": "uint256",
          "name": "qFeeToken_",
          "type": "uint256"
        },
        {
          "indexed": false,
          "internalType": "uint256",
          "name": "qACVendorMarkup_",
          "type": "uint256"
        },
        {
          "indexed": false,
          "internalType": "uint256",
          "name": "qFeeTokenVendorMarkup_",
          "type": "uint256"
        },
        {
          "indexed": false,
          "internalType": "address",
          "name": "vendor",
          "type": "address"
        }
      ],
      "name": "TCandTPMinted",
      "type": "event"
    },
    {
      "anonymous": false,
      "inputs": [
        {
          "indexed": true,
          "internalType": "uint256",
          "name": "i_",
          "type": "uint256"
        },
        {
          "indexed": true,
          "internalType": "address",
          "name": "sender_",
          "type": "address"
        },
        {
          "indexed": true,
          "internalType": "address",
          "name": "recipient_",
          "type": "address"
        },
        {
          "indexed": false,
          "internalType": "uint256",
          "name": "qTC_",
          "type": "uint256"
        },
        {
          "indexed": false,
          "internalType": "uint256",
          "name": "qTP_",
          "type": "uint256"
        },
        {
          "indexed": false,
          "internalType": "uint256",
          "name": "qAC_",
          "type": "uint256"
        },
        {
          "indexed": false,
          "internalType": "uint256",
          "name": "qACfee_",
          "type": "uint256"
        },
        {
          "indexed": false,
          "internalType": "uint256",
          "name": "qFeeToken_",
          "type": "uint256"
        },
        {
          "indexed": false,
          "internalType": "uint256",
          "name": "qACVendorMarkup_",
          "type": "uint256"
        },
        {
          "indexed": false,
          "internalType": "uint256",
          "name": "qFeeTokenVendorMarkup_",
          "type": "uint256"
        },
        {
          "indexed": false,
          "internalType": "address",
          "name": "vendor",
          "type": "address"
        }
      ],
      "name": "TCandTPRedeemed",
      "type": "event"
    },
    {
      "anonymous": false,
      "inputs": [
        {
          "indexed": true,
          "internalType": "uint256",
          "name": "i_",
          "type": "uint256"
        },
        {
          "indexed": true,
          "internalType": "address",
          "name": "sender_",
          "type": "address"
        },
        {
          "indexed": true,
          "internalType": "address",
          "name": "recipient_",
          "type": "address"
        },
        {
          "indexed": false,
          "internalType": "uint256",
          "name": "qTP_",
          "type": "uint256"
        },
        {
          "indexed": false,
          "internalType": "uint256",
          "name": "qAC_",
          "type": "uint256"
        },
        {
          "indexed": false,
          "internalType": "uint256",
          "name": "qACfee_",
          "type": "uint256"
        },
        {
          "indexed": false,
          "internalType": "uint256",
          "name": "qFeeToken_",
          "type": "uint256"
        },
        {
          "indexed": false,
          "internalType": "uint256",
          "name": "qACVendorMarkup_",
          "type": "uint256"
        },
        {
          "indexed": false,
          "internalType": "uint256",
          "name": "qFeeTokenVendorMarkup_",
          "type": "uint256"
        },
        {
          "indexed": false,
          "internalType": "address",
          "name": "vendor",
          "type": "address"
        }
      ],
      "name": "TPMinted",
      "type": "event"
    },
    {
      "anonymous": false,
      "inputs": [
        {
          "indexed": true,
          "internalType": "uint256",
          "name": "i_",
          "type": "uint256"
        },
        {
          "indexed": true,
          "internalType": "address",
          "name": "sender_",
          "type": "address"
        },
        {
          "indexed": true,
          "internalType": "address",
          "name": "recipient_",
          "type": "address"
        },
        {
          "indexed": false,
          "internalType": "uint256",
          "name": "qTP_",
          "type": "uint256"
        },
        {
          "indexed": false,
          "internalType": "uint256",
          "name": "qAC_",
          "type": "uint256"
        },
        {
          "indexed": false,
          "internalType": "uint256",
          "name": "qACfee_",
          "type": "uint256"
        },
        {
          "indexed": false,
          "internalType": "uint256",
          "name": "qFeeToken_",
          "type": "uint256"
        },
        {
          "indexed": false,
          "internalType": "uint256",
          "name": "qACVendorMarkup_",
          "type": "uint256"
        },
        {
          "indexed": false,
          "internalType": "uint256",
          "name": "qFeeTokenVendorMarkup_",
          "type": "uint256"
        },
        {
          "indexed": false,
          "internalType": "address",
          "name": "vendor",
          "type": "address"
        }
      ],
      "name": "TPRedeemed",
      "type": "event"
    },
    {
      "anonymous": false,
      "inputs": [
        {
          "indexed": true,
          "internalType": "uint256",
          "name": "i_",
          "type": "uint256"
        },
        {
          "indexed": true,
          "internalType": "address",
          "name": "sender_",
          "type": "address"
        },
        {
          "indexed": true,
          "internalType": "address",
          "name": "recipient_",
          "type": "address"
        },
        {
          "indexed": false,
          "internalType": "uint256",
          "name": "qTP_",
          "type": "uint256"
        },
        {
          "indexed": false,
          "internalType": "uint256",
          "name": "qTC_",
          "type": "uint256"
        },
        {
          "indexed": false,
          "internalType": "uint256",
          "name": "qACfee_",
          "type": "uint256"
        },
        {
          "indexed": false,
          "internalType": "uint256",
          "name": "qFeeToken_",
          "type": "uint256"
        },
        {
          "indexed": false,
          "internalType": "uint256",
          "name": "qACVendorMarkup_",
          "type": "uint256"
        },
        {
          "indexed": false,
          "internalType": "uint256",
          "name": "qFeeTokenVendorMarkup_",
          "type": "uint256"
        },
        {
          "indexed": false,
          "internalType": "address",
          "name": "vendor",
          "type": "address"
        }
      ],
      "name": "TPSwappedForTC",
      "type": "event"
    },
    {
      "anonymous": false,
      "inputs": [
        {
          "indexed": true,
          "internalType": "uint256",
          "name": "iFrom_",
          "type": "uint256"
        },
        {
          "indexed": false,
          "internalType": "uint256",
          "name": "iTo_",
          "type": "uint256"
        },
        {
          "indexed": true,
          "internalType": "address",
          "name": "sender_",
          "type": "address"
        },
        {
          "indexed": true,
          "internalType": "address",
          "name": "recipient_",
          "type": "address"
        },
        {
          "indexed": false,
          "internalType": "uint256",
          "name": "qTPfrom_",
          "type": "uint256"
        },
        {
          "indexed": false,
          "internalType": "uint256",
          "name": "qTPto_",
          "type": "uint256"
        },
        {
          "indexed": false,
          "internalType": "uint256",
          "name": "qACfee_",
          "type": "uint256"
        },
        {
          "indexed": false,
          "internalType": "uint256",
          "name": "qFeeToken_",
          "type": "uint256"
        },
        {
          "indexed": false,
          "internalType": "uint256",
          "name": "qACVendorMarkup_",
          "type": "uint256"
        },
        {
          "indexed": false,
          "internalType": "uint256",
          "name": "qFeeTokenVendorMarkup_",
          "type": "uint256"
        },
        {
          "indexed": false,
          "internalType": "address",
          "name": "vendor",
          "type": "address"
        }
      ],
      "name": "TPSwappedForTP",
      "type": "event"
    },
    {
      "anonymous": false,
      "inputs": [
        {
          "indexed": true,
          "internalType": "uint256",
          "name": "i_",
          "type": "uint256"
        },
        {
          "indexed": false,
          "internalType": "uint256",
          "name": "oldTPema_",
          "type": "uint256"
        },
        {
          "indexed": false,
          "internalType": "uint256",
          "name": "newTPema_",
          "type": "uint256"
        }
      ],
      "name": "TPemaUpdated",
      "type": "event"
    },
    {
      "anonymous": false,
      "inputs": [
        {
          "indexed": false,
          "internalType": "address",
          "name": "account",
          "type": "address"
        }
      ],
      "name": "Unpaused",
      "type": "event"
    },
    {
      "anonymous": false,
      "inputs": [
        {
          "indexed": true,
          "internalType": "address",
          "name": "implementation",
          "type": "address"
        }
      ],
      "name": "Upgraded",
      "type": "event"
    },
    {
      "inputs": [],
      "name": "acToken",
      "outputs": [
        {
          "internalType": "contract IERC20",
          "name": "",
          "type": "address"
        }
      ],
      "stateMutability": "view",
      "type": "function"
    },
    {
      "inputs": [
        {
          "components": [
            {
              "internalType": "address",
              "name": "tpTokenAddress",
              "type": "address"
            },
            {
              "internalType": "address",
              "name": "priceProviderAddress",
              "type": "address"
            },
            {
              "internalType": "uint256",
              "name": "tpCtarg",
              "type": "uint256"
            },
            {
              "internalType": "uint256",
              "name": "tpMintFee",
              "type": "uint256"
            },
            {
              "internalType": "uint256",
              "name": "tpRedeemFee",
              "type": "uint256"
            },
            {
              "internalType": "uint256",
              "name": "tpEma",
              "type": "uint256"
            },
            {
              "internalType": "uint256",
              "name": "tpEmaSf",
              "type": "uint256"
            }
          ],
          "internalType": "struct PeggedTokenParams",
          "name": "peggedTokenParams_",
          "type": "tuple"
        }
      ],
      "name": "addPeggedToken",
      "outputs": [],
      "stateMutability": "nonpayable",
      "type": "function"
    },
    {
      "inputs": [],
      "name": "appreciationFactor",
      "outputs": [
        {
          "internalType": "uint256",
          "name": "",
          "type": "uint256"
        }
      ],
      "stateMutability": "view",
      "type": "function"
    },
    {
      "inputs": [],
      "name": "bes",
      "outputs": [
        {
          "internalType": "uint256",
          "name": "",
          "type": "uint256"
        }
      ],
      "stateMutability": "view",
      "type": "function"
    },
    {
      "inputs": [],
      "name": "bns",
      "outputs": [
        {
          "internalType": "uint256",
          "name": "",
          "type": "uint256"
        }
      ],
      "stateMutability": "view",
      "type": "function"
    },
    {
      "inputs": [],
      "name": "calcCtargemaCA",
      "outputs": [
        {
          "internalType": "uint256",
          "name": "ctargemaCA",
          "type": "uint256"
        }
      ],
      "stateMutability": "view",
      "type": "function"
    },
    {
      "inputs": [
        {
          "internalType": "contract IGovernor",
          "name": "newGovernor_",
          "type": "address"
        }
      ],
      "name": "changeGovernor",
      "outputs": [],
      "stateMutability": "nonpayable",
      "type": "function"
    },
    {
      "inputs": [
        {
          "components": [
            {
              "internalType": "address",
              "name": "tpTokenAddress",
              "type": "address"
            },
            {
              "internalType": "address",
              "name": "priceProviderAddress",
              "type": "address"
            },
            {
              "internalType": "uint256",
              "name": "tpCtarg",
              "type": "uint256"
            },
            {
              "internalType": "uint256",
              "name": "tpMintFee",
              "type": "uint256"
            },
            {
              "internalType": "uint256",
              "name": "tpRedeemFee",
              "type": "uint256"
            },
            {
              "internalType": "uint256",
              "name": "tpEma",
              "type": "uint256"
            },
            {
              "internalType": "uint256",
              "name": "tpEmaSf",
              "type": "uint256"
            }
          ],
          "internalType": "struct PeggedTokenParams",
          "name": "peggedTokenParams_",
          "type": "tuple"
        }
      ],
      "name": "editPeggedToken",
      "outputs": [],
      "stateMutability": "nonpayable",
      "type": "function"
    },
    {
      "inputs": [],
      "name": "emaCalculationBlockSpan",
      "outputs": [
        {
          "internalType": "uint256",
          "name": "",
          "type": "uint256"
        }
      ],
      "stateMutability": "view",
      "type": "function"
    },
    {
      "inputs": [],
      "name": "evalLiquidation",
      "outputs": [],
      "stateMutability": "nonpayable",
      "type": "function"
    },
    {
      "inputs": [],
      "name": "execSettlement",
      "outputs": [],
      "stateMutability": "nonpayable",
      "type": "function"
    },
    {
      "inputs": [],
      "name": "feeRetainer",
      "outputs": [
        {
          "internalType": "uint256",
          "name": "",
          "type": "uint256"
        }
      ],
      "stateMutability": "view",
      "type": "function"
    },
    {
      "inputs": [],
      "name": "feeToken",
      "outputs": [
        {
          "internalType": "contract IERC20",
          "name": "",
          "type": "address"
        }
      ],
      "stateMutability": "view",
      "type": "function"
    },
    {
      "inputs": [],
      "name": "feeTokenPct",
      "outputs": [
        {
          "internalType": "uint256",
          "name": "",
          "type": "uint256"
        }
      ],
      "stateMutability": "view",
      "type": "function"
    },
    {
      "inputs": [],
      "name": "feeTokenPriceProvider",
      "outputs": [
        {
          "internalType": "contract IPriceProvider",
          "name": "",
          "type": "address"
        }
      ],
      "stateMutability": "view",
      "type": "function"
    },
    {
      "inputs": [],
      "name": "getBts",
      "outputs": [
        {
          "internalType": "uint256",
          "name": "",
          "type": "uint256"
        }
      ],
      "stateMutability": "view",
      "type": "function"
    },
    {
      "inputs": [],
      "name": "getCglb",
      "outputs": [
        {
          "internalType": "uint256",
          "name": "cglob",
          "type": "uint256"
        }
      ],
      "stateMutability": "view",
      "type": "function"
    },
    {
      "inputs": [],
      "name": "getLckAC",
      "outputs": [
        {
          "internalType": "uint256",
          "name": "lckAC",
          "type": "uint256"
        }
      ],
      "stateMutability": "view",
      "type": "function"
    },
    {
      "inputs": [],
      "name": "getLeverageTC",
      "outputs": [
        {
          "internalType": "uint256",
          "name": "leverageTC",
          "type": "uint256"
        }
      ],
      "stateMutability": "view",
      "type": "function"
    },
    {
      "inputs": [
        {
          "internalType": "uint256",
          "name": "i_",
          "type": "uint256"
        }
      ],
      "name": "getPACtp",
      "outputs": [
        {
          "internalType": "uint256",
          "name": "",
          "type": "uint256"
        }
      ],
      "stateMutability": "view",
      "type": "function"
    },
    {
      "inputs": [],
      "name": "getPTCac",
      "outputs": [
        {
          "internalType": "uint256",
          "name": "pTCac",
          "type": "uint256"
        }
      ],
      "stateMutability": "view",
      "type": "function"
    },
    {
      "inputs": [],
      "name": "getTCAvailableToRedeem",
      "outputs": [
        {
          "internalType": "int256",
          "name": "tcAvailableToRedeem",
          "type": "int256"
        }
      ],
      "stateMutability": "view",
      "type": "function"
    },
    {
      "inputs": [
        {
          "internalType": "uint256",
          "name": "i_",
          "type": "uint256"
        }
      ],
      "name": "getTPAvailableToMint",
      "outputs": [
        {
          "internalType": "int256",
          "name": "tpAvailableToMint",
          "type": "int256"
        }
      ],
      "stateMutability": "view",
      "type": "function"
    },
    {
      "inputs": [],
      "name": "getTotalACavailable",
      "outputs": [
        {
          "internalType": "uint256",
          "name": "totalACavailable",
          "type": "uint256"
        }
      ],
      "stateMutability": "view",
      "type": "function"
    },
    {
      "inputs": [],
      "name": "governor",
      "outputs": [
        {
          "internalType": "contract IGovernor",
          "name": "",
          "type": "address"
        }
      ],
      "stateMutability": "view",
      "type": "function"
    },
    {
      "inputs": [
        {
          "components": [
            {
              "components": [
                {
                  "components": [
                    {
                      "internalType": "address",
                      "name": "feeTokenAddress",
                      "type": "address"
                    },
                    {
                      "internalType": "address",
                      "name": "feeTokenPriceProviderAddress",
                      "type": "address"
                    },
                    {
                      "internalType": "address",
                      "name": "tcTokenAddress",
                      "type": "address"
                    },
                    {
                      "internalType": "address",
                      "name": "mocFeeFlowAddress",
                      "type": "address"
                    },
                    {
                      "internalType": "address",
                      "name": "mocAppreciationBeneficiaryAddress",
                      "type": "address"
                    },
                    {
                      "internalType": "uint256",
                      "name": "protThrld",
                      "type": "uint256"
                    },
                    {
                      "internalType": "uint256",
                      "name": "liqThrld",
                      "type": "uint256"
                    },
                    {
                      "internalType": "uint256",
                      "name": "feeRetainer",
                      "type": "uint256"
                    },
                    {
                      "internalType": "uint256",
                      "name": "tcMintFee",
                      "type": "uint256"
                    },
                    {
                      "internalType": "uint256",
                      "name": "tcRedeemFee",
                      "type": "uint256"
                    },
                    {
                      "internalType": "uint256",
                      "name": "swapTPforTPFee",
                      "type": "uint256"
                    },
                    {
                      "internalType": "uint256",
                      "name": "swapTPforTCFee",
                      "type": "uint256"
                    },
                    {
                      "internalType": "uint256",
                      "name": "swapTCforTPFee",
                      "type": "uint256"
                    },
                    {
                      "internalType": "uint256",
                      "name": "redeemTCandTPFee",
                      "type": "uint256"
                    },
                    {
                      "internalType": "uint256",
                      "name": "mintTCandTPFee",
                      "type": "uint256"
                    },
                    {
                      "internalType": "uint256",
                      "name": "feeTokenPct",
                      "type": "uint256"
                    },
                    {
                      "internalType": "uint256",
                      "name": "successFee",
                      "type": "uint256"
                    },
                    {
                      "internalType": "uint256",
                      "name": "appreciationFactor",
                      "type": "uint256"
                    },
                    {
                      "internalType": "uint256",
                      "name": "bes",
                      "type": "uint256"
                    },
                    {
                      "internalType": "address",
                      "name": "tcInterestCollectorAddress",
                      "type": "address"
                    },
                    {
                      "internalType": "uint256",
                      "name": "tcInterestRate",
                      "type": "uint256"
                    },
                    {
                      "internalType": "uint256",
                      "name": "tcInterestPaymentBlockSpan",
                      "type": "uint256"
                    }
                  ],
                  "internalType": "struct MocBaseBucket.InitializeBaseBucketParams",
                  "name": "initializeBaseBucketParams",
                  "type": "tuple"
                },
                {
                  "internalType": "address",
                  "name": "governorAddress",
                  "type": "address"
                },
                {
                  "internalType": "address",
                  "name": "pauserAddress",
                  "type": "address"
                },
                {
                  "internalType": "address",
                  "name": "mocCoreExpansion",
                  "type": "address"
                },
                {
                  "internalType": "uint256",
                  "name": "emaCalculationBlockSpan",
                  "type": "uint256"
                },
                {
                  "internalType": "address",
                  "name": "mocVendors",
                  "type": "address"
                }
              ],
              "internalType": "struct MocCore.InitializeCoreParams",
              "name": "initializeCoreParams",
              "type": "tuple"
            },
            {
              "internalType": "address",
              "name": "acTokenAddress",
              "type": "address"
            }
          ],
          "internalType": "struct MocCARC20.InitializeParams",
          "name": "initializeParams_",
          "type": "tuple"
        }
      ],
      "name": "initialize",
      "outputs": [],
      "stateMutability": "nonpayable",
      "type": "function"
    },
    {
      "inputs": [],
      "name": "isLiquidationReached",
      "outputs": [
        {
          "internalType": "bool",
          "name": "",
          "type": "bool"
        }
      ],
      "stateMutability": "view",
      "type": "function"
    },
    {
      "inputs": [],
      "name": "liqEnabled",
      "outputs": [
        {
          "internalType": "bool",
          "name": "",
          "type": "bool"
        }
      ],
      "stateMutability": "view",
      "type": "function"
    },
    {
      "inputs": [
        {
          "internalType": "uint256",
          "name": "i_",
          "type": "uint256"
        }
      ],
      "name": "liqRedeemTP",
      "outputs": [
        {
          "internalType": "uint256",
          "name": "qACRedeemed",
          "type": "uint256"
        }
      ],
      "stateMutability": "nonpayable",
      "type": "function"
    },
    {
      "inputs": [
        {
          "internalType": "uint256",
          "name": "i_",
          "type": "uint256"
        },
        {
          "internalType": "address",
          "name": "recipient_",
          "type": "address"
        }
      ],
      "name": "liqRedeemTPto",
      "outputs": [
        {
          "internalType": "uint256",
          "name": "qACRedeemed",
          "type": "uint256"
        }
      ],
      "stateMutability": "nonpayable",
      "type": "function"
    },
    {
      "inputs": [],
      "name": "liqThrld",
      "outputs": [
        {
          "internalType": "uint256",
          "name": "",
          "type": "uint256"
        }
      ],
      "stateMutability": "view",
      "type": "function"
    },
    {
      "inputs": [],
      "name": "liquidated",
      "outputs": [
        {
          "internalType": "bool",
          "name": "",
          "type": "bool"
        }
      ],
      "stateMutability": "view",
      "type": "function"
    },
    {
      "inputs": [],
      "name": "makeStoppable",
      "outputs": [],
      "stateMutability": "nonpayable",
      "type": "function"
    },
    {
      "inputs": [],
      "name": "makeUnstoppable",
      "outputs": [],
      "stateMutability": "nonpayable",
      "type": "function"
    },
    {
      "inputs": [
        {
          "internalType": "uint256",
          "name": "qTC_",
          "type": "uint256"
        },
        {
          "internalType": "uint256",
          "name": "qACmax_",
          "type": "uint256"
        }
      ],
      "name": "mintTC",
      "outputs": [
        {
          "internalType": "uint256",
          "name": "qACtotalNeeded",
          "type": "uint256"
        },
        {
          "internalType": "uint256",
          "name": "qFeeToken",
          "type": "uint256"
        }
      ],
      "stateMutability": "payable",
      "type": "function"
    },
    {
      "inputs": [
        {
          "internalType": "uint256",
          "name": "qTC_",
          "type": "uint256"
        },
        {
          "internalType": "uint256",
          "name": "qACmax_",
          "type": "uint256"
        },
        {
          "internalType": "address",
          "name": "vendor_",
          "type": "address"
        }
      ],
      "name": "mintTCViaVendor",
      "outputs": [
        {
          "internalType": "uint256",
          "name": "qACtotalNeeded",
          "type": "uint256"
        },
        {
          "internalType": "uint256",
          "name": "qFeeToken",
          "type": "uint256"
        }
      ],
      "stateMutability": "payable",
      "type": "function"
    },
    {
      "inputs": [
        {
          "internalType": "uint256",
          "name": "i_",
          "type": "uint256"
        },
        {
          "internalType": "uint256",
          "name": "qTP_",
          "type": "uint256"
        },
        {
          "internalType": "uint256",
          "name": "qACmax_",
          "type": "uint256"
        }
      ],
      "name": "mintTCandTP",
      "outputs": [
        {
          "internalType": "uint256",
          "name": "qACtotalNeeded",
          "type": "uint256"
        },
        {
          "internalType": "uint256",
          "name": "qTCtoMint",
          "type": "uint256"
        },
        {
          "internalType": "uint256",
          "name": "qFeeToken",
          "type": "uint256"
        }
      ],
      "stateMutability": "payable",
      "type": "function"
    },
    {
      "inputs": [],
      "name": "mintTCandTPFee",
      "outputs": [
        {
          "internalType": "uint256",
          "name": "",
          "type": "uint256"
        }
      ],
      "stateMutability": "view",
      "type": "function"
    },
    {
      "inputs": [
        {
          "internalType": "uint256",
          "name": "i_",
          "type": "uint256"
        },
        {
          "internalType": "uint256",
          "name": "qTP_",
          "type": "uint256"
        },
        {
          "internalType": "uint256",
          "name": "qACmax_",
          "type": "uint256"
        },
        {
          "internalType": "address",
          "name": "vendor_",
          "type": "address"
        }
      ],
      "name": "mintTCandTPViaVendor",
      "outputs": [
        {
          "internalType": "uint256",
          "name": "qACtotalNeeded",
          "type": "uint256"
        },
        {
          "internalType": "uint256",
          "name": "qTCtoMint",
          "type": "uint256"
        },
        {
          "internalType": "uint256",
          "name": "qFeeToken",
          "type": "uint256"
        }
      ],
      "stateMutability": "payable",
      "type": "function"
    },
    {
      "inputs": [
        {
          "internalType": "uint256",
          "name": "i_",
          "type": "uint256"
        },
        {
          "internalType": "uint256",
          "name": "qTP_",
          "type": "uint256"
        },
        {
          "internalType": "uint256",
          "name": "qACmax_",
          "type": "uint256"
        },
        {
          "internalType": "address",
          "name": "recipient_",
          "type": "address"
        }
      ],
      "name": "mintTCandTPto",
      "outputs": [
        {
          "internalType": "uint256",
          "name": "qACtotalNeeded",
          "type": "uint256"
        },
        {
          "internalType": "uint256",
          "name": "qTCtoMint",
          "type": "uint256"
        },
        {
          "internalType": "uint256",
          "name": "qFeeToken",
          "type": "uint256"
        }
      ],
      "stateMutability": "payable",
      "type": "function"
    },
    {
      "inputs": [
        {
          "internalType": "uint256",
          "name": "i_",
          "type": "uint256"
        },
        {
          "internalType": "uint256",
          "name": "qTP_",
          "type": "uint256"
        },
        {
          "internalType": "uint256",
          "name": "qACmax_",
          "type": "uint256"
        },
        {
          "internalType": "address",
          "name": "recipient_",
          "type": "address"
        },
        {
          "internalType": "address",
          "name": "vendor_",
          "type": "address"
        }
      ],
      "name": "mintTCandTPtoViaVendor",
      "outputs": [
        {
          "internalType": "uint256",
          "name": "qACtotalNeeded",
          "type": "uint256"
        },
        {
          "internalType": "uint256",
          "name": "qTCtoMint",
          "type": "uint256"
        },
        {
          "internalType": "uint256",
          "name": "qFeeToken",
          "type": "uint256"
        }
      ],
      "stateMutability": "payable",
      "type": "function"
    },
    {
      "inputs": [
        {
          "internalType": "uint256",
          "name": "qTC_",
          "type": "uint256"
        },
        {
          "internalType": "uint256",
          "name": "qACmax_",
          "type": "uint256"
        },
        {
          "internalType": "address",
          "name": "recipient_",
          "type": "address"
        }
      ],
      "name": "mintTCto",
      "outputs": [
        {
          "internalType": "uint256",
          "name": "qACtotalNeeded",
          "type": "uint256"
        },
        {
          "internalType": "uint256",
          "name": "qFeeToken",
          "type": "uint256"
        }
      ],
      "stateMutability": "payable",
      "type": "function"
    },
    {
      "inputs": [
        {
          "internalType": "uint256",
          "name": "qTC_",
          "type": "uint256"
        },
        {
          "internalType": "uint256",
          "name": "qACmax_",
          "type": "uint256"
        },
        {
          "internalType": "address",
          "name": "recipient_",
          "type": "address"
        },
        {
          "internalType": "address",
          "name": "vendor_",
          "type": "address"
        }
      ],
      "name": "mintTCtoViaVendor",
      "outputs": [
        {
          "internalType": "uint256",
          "name": "qACtotalNeeded",
          "type": "uint256"
        },
        {
          "internalType": "uint256",
          "name": "qFeeToken",
          "type": "uint256"
        }
      ],
      "stateMutability": "payable",
      "type": "function"
    },
    {
      "inputs": [
        {
          "internalType": "uint256",
          "name": "i_",
          "type": "uint256"
        },
        {
          "internalType": "uint256",
          "name": "qTP_",
          "type": "uint256"
        },
        {
          "internalType": "uint256",
          "name": "qACmax_",
          "type": "uint256"
        }
      ],
      "name": "mintTP",
      "outputs": [
        {
          "internalType": "uint256",
          "name": "qACtotalNeeded",
          "type": "uint256"
        },
        {
          "internalType": "uint256",
          "name": "qFeeToken",
          "type": "uint256"
        }
      ],
      "stateMutability": "payable",
      "type": "function"
    },
    {
      "inputs": [
        {
          "internalType": "uint256",
          "name": "i_",
          "type": "uint256"
        },
        {
          "internalType": "uint256",
          "name": "qTP_",
          "type": "uint256"
        },
        {
          "internalType": "uint256",
          "name": "qACmax_",
          "type": "uint256"
        },
        {
          "internalType": "address",
          "name": "vendor_",
          "type": "address"
        }
      ],
      "name": "mintTPViaVendor",
      "outputs": [
        {
          "internalType": "uint256",
          "name": "qACtotalNeeded",
          "type": "uint256"
        },
        {
          "internalType": "uint256",
          "name": "qFeeToken",
          "type": "uint256"
        }
      ],
      "stateMutability": "payable",
      "type": "function"
    },
    {
      "inputs": [
        {
          "internalType": "uint256",
          "name": "i_",
          "type": "uint256"
        },
        {
          "internalType": "uint256",
          "name": "qTP_",
          "type": "uint256"
        },
        {
          "internalType": "uint256",
          "name": "qACmax_",
          "type": "uint256"
        },
        {
          "internalType": "address",
          "name": "recipient_",
          "type": "address"
        }
      ],
      "name": "mintTPto",
      "outputs": [
        {
          "internalType": "uint256",
          "name": "qACtotalNeeded",
          "type": "uint256"
        },
        {
          "internalType": "uint256",
          "name": "qFeeToken",
          "type": "uint256"
        }
      ],
      "stateMutability": "payable",
      "type": "function"
    },
    {
      "inputs": [
        {
          "internalType": "uint256",
          "name": "i_",
          "type": "uint256"
        },
        {
          "internalType": "uint256",
          "name": "qTP_",
          "type": "uint256"
        },
        {
          "internalType": "uint256",
          "name": "qACmax_",
          "type": "uint256"
        },
        {
          "internalType": "address",
          "name": "recipient_",
          "type": "address"
        },
        {
          "internalType": "address",
          "name": "vendor_",
          "type": "address"
        }
      ],
      "name": "mintTPtoViaVendor",
      "outputs": [
        {
          "internalType": "uint256",
          "name": "qACtotalNeeded",
          "type": "uint256"
        },
        {
          "internalType": "uint256",
          "name": "qFeeToken",
          "type": "uint256"
        }
      ],
      "stateMutability": "payable",
      "type": "function"
    },
    {
      "inputs": [],
      "name": "mocAppreciationBeneficiaryAddress",
      "outputs": [
        {
          "internalType": "address",
          "name": "",
          "type": "address"
        }
      ],
      "stateMutability": "view",
      "type": "function"
    },
    {
      "inputs": [],
      "name": "mocFeeFlowAddress",
      "outputs": [
        {
          "internalType": "address",
          "name": "",
          "type": "address"
        }
      ],
      "stateMutability": "view",
      "type": "function"
    },
    {
      "inputs": [],
      "name": "mocVendors",
      "outputs": [
        {
          "internalType": "contract MocVendors",
          "name": "",
          "type": "address"
        }
      ],
      "stateMutability": "view",
      "type": "function"
    },
    {
      "inputs": [],
      "name": "nACcb",
      "outputs": [
        {
          "internalType": "uint256",
          "name": "",
          "type": "uint256"
        }
      ],
      "stateMutability": "view",
      "type": "function"
    },
    {
      "inputs": [],
      "name": "nTCcb",
      "outputs": [
        {
          "internalType": "uint256",
          "name": "",
          "type": "uint256"
        }
      ],
      "stateMutability": "view",
      "type": "function"
    },
    {
      "inputs": [],
      "name": "nextEmaCalculation",
      "outputs": [
        {
          "internalType": "uint256",
          "name": "",
          "type": "uint256"
        }
      ],
      "stateMutability": "view",
      "type": "function"
    },
    {
      "inputs": [],
      "name": "nextTCInterestPayment",
      "outputs": [
        {
          "internalType": "uint256",
          "name": "",
          "type": "uint256"
        }
      ],
      "stateMutability": "view",
      "type": "function"
    },
    {
      "inputs": [],
      "name": "pause",
      "outputs": [],
      "stateMutability": "nonpayable",
      "type": "function"
    },
    {
      "inputs": [],
      "name": "paused",
      "outputs": [
        {
          "internalType": "bool",
          "name": "",
          "type": "bool"
        }
      ],
      "stateMutability": "view",
      "type": "function"
    },
    {
      "inputs": [],
      "name": "pauser",
      "outputs": [
        {
          "internalType": "address",
          "name": "",
          "type": "address"
        }
      ],
      "stateMutability": "view",
      "type": "function"
    },
    {
      "inputs": [
        {
          "internalType": "uint256",
          "name": "",
          "type": "uint256"
        }
      ],
      "name": "pegContainer",
      "outputs": [
        {
          "internalType": "uint256",
          "name": "nTP",
          "type": "uint256"
        },
        {
          "internalType": "contract IPriceProvider",
          "name": "priceProvider",
          "type": "address"
        }
      ],
      "stateMutability": "view",
      "type": "function"
    },
    {
      "inputs": [
        {
          "internalType": "address",
          "name": "",
          "type": "address"
        }
      ],
      "name": "peggedTokenIndex",
      "outputs": [
        {
          "internalType": "uint256",
          "name": "index",
          "type": "uint256"
        },
        {
          "internalType": "bool",
          "name": "exists",
          "type": "bool"
        }
      ],
      "stateMutability": "view",
      "type": "function"
    },
    {
      "inputs": [],
      "name": "protThrld",
      "outputs": [
        {
          "internalType": "uint256",
          "name": "",
          "type": "uint256"
        }
      ],
      "stateMutability": "view",
      "type": "function"
    },
    {
      "inputs": [],
      "name": "proxiableUUID",
      "outputs": [
        {
          "internalType": "bytes32",
          "name": "",
          "type": "bytes32"
        }
      ],
      "stateMutability": "view",
      "type": "function"
    },
    {
      "inputs": [
        {
          "internalType": "uint256",
          "name": "qTC_",
          "type": "uint256"
        },
        {
          "internalType": "uint256",
          "name": "qACmin_",
          "type": "uint256"
        }
      ],
      "name": "redeemTC",
      "outputs": [
        {
          "internalType": "uint256",
          "name": "qACRedeemed",
          "type": "uint256"
        },
        {
          "internalType": "uint256",
          "name": "qFeeToken",
          "type": "uint256"
        }
      ],
      "stateMutability": "payable",
      "type": "function"
    },
    {
      "inputs": [
        {
          "internalType": "uint256",
          "name": "qTC_",
          "type": "uint256"
        },
        {
          "internalType": "uint256",
          "name": "qACmin_",
          "type": "uint256"
        },
        {
          "internalType": "address",
          "name": "vendor_",
          "type": "address"
        }
      ],
      "name": "redeemTCViaVendor",
      "outputs": [
        {
          "internalType": "uint256",
          "name": "qACRedeemed",
          "type": "uint256"
        },
        {
          "internalType": "uint256",
          "name": "qFeeToken",
          "type": "uint256"
        }
      ],
      "stateMutability": "payable",
      "type": "function"
    },
    {
      "inputs": [
        {
          "internalType": "uint256",
          "name": "i_",
          "type": "uint256"
        },
        {
          "internalType": "uint256",
          "name": "qTC_",
          "type": "uint256"
        },
        {
          "internalType": "uint256",
          "name": "qTP_",
          "type": "uint256"
        },
        {
          "internalType": "uint256",
          "name": "qACmin_",
          "type": "uint256"
        }
      ],
      "name": "redeemTCandTP",
      "outputs": [
        {
          "internalType": "uint256",
          "name": "qACRedeemed",
          "type": "uint256"
        },
        {
          "internalType": "uint256",
          "name": "qTPRedeemed",
          "type": "uint256"
        },
        {
          "internalType": "uint256",
          "name": "qFeeToken",
          "type": "uint256"
        }
      ],
      "stateMutability": "payable",
      "type": "function"
    },
    {
      "inputs": [],
      "name": "redeemTCandTPFee",
      "outputs": [
        {
          "internalType": "uint256",
          "name": "",
          "type": "uint256"
        }
      ],
      "stateMutability": "view",
      "type": "function"
    },
    {
      "inputs": [
        {
          "internalType": "uint256",
          "name": "i_",
          "type": "uint256"
        },
        {
          "internalType": "uint256",
          "name": "qTC_",
          "type": "uint256"
        },
        {
          "internalType": "uint256",
          "name": "qTP_",
          "type": "uint256"
        },
        {
          "internalType": "uint256",
          "name": "qACmin_",
          "type": "uint256"
        },
        {
          "internalType": "address",
          "name": "vendor_",
          "type": "address"
        }
      ],
      "name": "redeemTCandTPViaVendor",
      "outputs": [
        {
          "internalType": "uint256",
          "name": "qACRedeemed",
          "type": "uint256"
        },
        {
          "internalType": "uint256",
          "name": "qTPRedeemed",
          "type": "uint256"
        },
        {
          "internalType": "uint256",
          "name": "qFeeToken",
          "type": "uint256"
        }
      ],
      "stateMutability": "payable",
      "type": "function"
    },
    {
      "inputs": [
        {
          "internalType": "uint256",
          "name": "i_",
          "type": "uint256"
        },
        {
          "internalType": "uint256",
          "name": "qTC_",
          "type": "uint256"
        },
        {
          "internalType": "uint256",
          "name": "qTP_",
          "type": "uint256"
        },
        {
          "internalType": "uint256",
          "name": "qACmin_",
          "type": "uint256"
        },
        {
          "internalType": "address",
          "name": "recipient_",
          "type": "address"
        }
      ],
      "name": "redeemTCandTPto",
      "outputs": [
        {
          "internalType": "uint256",
          "name": "qACRedeemed",
          "type": "uint256"
        },
        {
          "internalType": "uint256",
          "name": "qTPRedeemed",
          "type": "uint256"
        },
        {
          "internalType": "uint256",
          "name": "qFeeToken",
          "type": "uint256"
        }
      ],
      "stateMutability": "payable",
      "type": "function"
    },
    {
      "inputs": [
        {
          "internalType": "uint256",
          "name": "i_",
          "type": "uint256"
        },
        {
          "internalType": "uint256",
          "name": "qTC_",
          "type": "uint256"
        },
        {
          "internalType": "uint256",
          "name": "qTP_",
          "type": "uint256"
        },
        {
          "internalType": "uint256",
          "name": "qACmin_",
          "type": "uint256"
        },
        {
          "internalType": "address",
          "name": "recipient_",
          "type": "address"
        },
        {
          "internalType": "address",
          "name": "vendor_",
          "type": "address"
        }
      ],
      "name": "redeemTCandTPtoViaVendor",
      "outputs": [
        {
          "internalType": "uint256",
          "name": "qACRedeemed",
          "type": "uint256"
        },
        {
          "internalType": "uint256",
          "name": "qTPRedeemed",
          "type": "uint256"
        },
        {
          "internalType": "uint256",
          "name": "qFeeToken",
          "type": "uint256"
        }
      ],
      "stateMutability": "payable",
      "type": "function"
    },
    {
      "inputs": [
        {
          "internalType": "uint256",
          "name": "qTC_",
          "type": "uint256"
        },
        {
          "internalType": "uint256",
          "name": "qACmin_",
          "type": "uint256"
        },
        {
          "internalType": "address",
          "name": "recipient_",
          "type": "address"
        }
      ],
      "name": "redeemTCto",
      "outputs": [
        {
          "internalType": "uint256",
          "name": "qACRedeemed",
          "type": "uint256"
        },
        {
          "internalType": "uint256",
          "name": "qFeeToken",
          "type": "uint256"
        }
      ],
      "stateMutability": "payable",
      "type": "function"
    },
    {
      "inputs": [
        {
          "internalType": "uint256",
          "name": "qTC_",
          "type": "uint256"
        },
        {
          "internalType": "uint256",
          "name": "qACmin_",
          "type": "uint256"
        },
        {
          "internalType": "address",
          "name": "recipient_",
          "type": "address"
        },
        {
          "internalType": "address",
          "name": "vendor_",
          "type": "address"
        }
      ],
      "name": "redeemTCtoViaVendor",
      "outputs": [
        {
          "internalType": "uint256",
          "name": "qACRedeemed",
          "type": "uint256"
        },
        {
          "internalType": "uint256",
          "name": "qFeeToken",
          "type": "uint256"
        }
      ],
      "stateMutability": "payable",
      "type": "function"
    },
    {
      "inputs": [
        {
          "internalType": "uint256",
          "name": "i_",
          "type": "uint256"
        },
        {
          "internalType": "uint256",
          "name": "qTP_",
          "type": "uint256"
        },
        {
          "internalType": "uint256",
          "name": "qACmin_",
          "type": "uint256"
        }
      ],
      "name": "redeemTP",
      "outputs": [
        {
          "internalType": "uint256",
          "name": "qACRedeemed",
          "type": "uint256"
        },
        {
          "internalType": "uint256",
          "name": "qFeeToken",
          "type": "uint256"
        }
      ],
      "stateMutability": "payable",
      "type": "function"
    },
    {
      "inputs": [
        {
          "internalType": "uint256",
          "name": "i_",
          "type": "uint256"
        },
        {
          "internalType": "uint256",
          "name": "qTP_",
          "type": "uint256"
        },
        {
          "internalType": "uint256",
          "name": "qACmin_",
          "type": "uint256"
        },
        {
          "internalType": "address",
          "name": "vendor_",
          "type": "address"
        }
      ],
      "name": "redeemTPViaVendor",
      "outputs": [
        {
          "internalType": "uint256",
          "name": "qACRedeemed",
          "type": "uint256"
        },
        {
          "internalType": "uint256",
          "name": "qFeeToken",
          "type": "uint256"
        }
      ],
      "stateMutability": "payable",
      "type": "function"
    },
    {
      "inputs": [
        {
          "internalType": "uint256",
          "name": "i_",
          "type": "uint256"
        },
        {
          "internalType": "uint256",
          "name": "qTP_",
          "type": "uint256"
        },
        {
          "internalType": "uint256",
          "name": "qACmin_",
          "type": "uint256"
        },
        {
          "internalType": "address",
          "name": "recipient_",
          "type": "address"
        }
      ],
      "name": "redeemTPto",
      "outputs": [
        {
          "internalType": "uint256",
          "name": "qACRedeemed",
          "type": "uint256"
        },
        {
          "internalType": "uint256",
          "name": "qFeeToken",
          "type": "uint256"
        }
      ],
      "stateMutability": "payable",
      "type": "function"
    },
    {
      "inputs": [
        {
          "internalType": "uint256",
          "name": "i_",
          "type": "uint256"
        },
        {
          "internalType": "uint256",
          "name": "qTP_",
          "type": "uint256"
        },
        {
          "internalType": "uint256",
          "name": "qACmin_",
          "type": "uint256"
        },
        {
          "internalType": "address",
          "name": "recipient_",
          "type": "address"
        },
        {
          "internalType": "address",
          "name": "vendor_",
          "type": "address"
        }
      ],
      "name": "redeemTPtoViaVendor",
      "outputs": [
        {
          "internalType": "uint256",
          "name": "qACRedeemed",
          "type": "uint256"
        },
        {
          "internalType": "uint256",
          "name": "qFeeToken",
          "type": "uint256"
        }
      ],
      "stateMutability": "payable",
      "type": "function"
    },
    {
      "inputs": [],
      "name": "refreshACBalance",
      "outputs": [],
      "stateMutability": "nonpayable",
      "type": "function"
    },
    {
      "inputs": [
        {
          "internalType": "uint256",
          "name": "appreciationFactor_",
          "type": "uint256"
        }
      ],
      "name": "setAppreciationFactor",
      "outputs": [],
      "stateMutability": "nonpayable",
      "type": "function"
    },
    {
      "inputs": [
        {
          "internalType": "uint256",
          "name": "bes_",
          "type": "uint256"
        }
      ],
      "name": "setBes",
      "outputs": [],
      "stateMutability": "nonpayable",
      "type": "function"
    },
    {
      "inputs": [
        {
          "internalType": "uint256",
          "name": "blockSpan_",
          "type": "uint256"
        }
      ],
      "name": "setEmaCalculationBlockSpan",
      "outputs": [],
      "stateMutability": "nonpayable",
      "type": "function"
    },
    {
      "inputs": [
        {
          "internalType": "uint256",
          "name": "feeRetainer_",
          "type": "uint256"
        }
      ],
      "name": "setFeeRetainer",
      "outputs": [],
      "stateMutability": "nonpayable",
      "type": "function"
    },
    {
      "inputs": [
        {
          "internalType": "address",
          "name": "mocFeeTokenAddress_",
          "type": "address"
        }
      ],
      "name": "setFeeTokenAddress",
      "outputs": [],
      "stateMutability": "nonpayable",
      "type": "function"
    },
    {
      "inputs": [
        {
          "internalType": "uint256",
          "name": "feeTokenPct_",
          "type": "uint256"
        }
      ],
      "name": "setFeeTokenPct",
      "outputs": [],
      "stateMutability": "nonpayable",
      "type": "function"
    },
    {
      "inputs": [
        {
          "internalType": "address",
          "name": "mocFeeTokenPriceProviderAddress_",
          "type": "address"
        }
      ],
      "name": "setFeeTokenPriceProviderAddress",
      "outputs": [],
      "stateMutability": "nonpayable",
      "type": "function"
    },
    {
      "inputs": [
        {
          "internalType": "bool",
          "name": "liqEnabled_",
          "type": "bool"
        }
      ],
      "name": "setLiqEnabled",
      "outputs": [],
      "stateMutability": "nonpayable",
      "type": "function"
    },
    {
      "inputs": [
        {
          "internalType": "uint256",
          "name": "liqThrld_",
          "type": "uint256"
        }
      ],
      "name": "setLiqThrld",
      "outputs": [],
      "stateMutability": "nonpayable",
      "type": "function"
    },
    {
      "inputs": [
        {
          "internalType": "uint256",
          "name": "mintTCandTPFee_",
          "type": "uint256"
        }
      ],
      "name": "setMintTCandTPFee",
      "outputs": [],
      "stateMutability": "nonpayable",
      "type": "function"
    },
    {
      "inputs": [
        {
          "internalType": "address",
          "name": "mocAppreciationBeneficiaryAddress_",
          "type": "address"
        }
      ],
      "name": "setMocAppreciationBeneficiaryAddress",
      "outputs": [],
      "stateMutability": "nonpayable",
      "type": "function"
    },
    {
      "inputs": [
        {
          "internalType": "address",
          "name": "mocCoreExpansion_",
          "type": "address"
        }
      ],
      "name": "setMocCoreExpansion",
      "outputs": [],
      "stateMutability": "nonpayable",
      "type": "function"
    },
    {
      "inputs": [
        {
          "internalType": "address",
          "name": "mocFeeFlowAddress_",
          "type": "address"
        }
      ],
      "name": "setMocFeeFlowAddress",
      "outputs": [],
      "stateMutability": "nonpayable",
      "type": "function"
    },
    {
      "inputs": [
        {
          "internalType": "address",
          "name": "mocVendors_",
          "type": "address"
        }
      ],
      "name": "setMocVendors",
      "outputs": [],
      "stateMutability": "nonpayable",
      "type": "function"
    },
    {
      "inputs": [
        {
          "internalType": "address",
          "name": "newPauser_",
          "type": "address"
        }
      ],
      "name": "setPauser",
      "outputs": [],
      "stateMutability": "nonpayable",
      "type": "function"
    },
    {
      "inputs": [
        {
          "internalType": "uint256",
          "name": "protThrld_",
          "type": "uint256"
        }
      ],
      "name": "setProtThrld",
      "outputs": [],
      "stateMutability": "nonpayable",
      "type": "function"
    },
    {
      "inputs": [
        {
          "internalType": "uint256",
          "name": "redeemTCandTPFee_",
          "type": "uint256"
        }
      ],
      "name": "setRedeemTCandTPFee",
      "outputs": [],
      "stateMutability": "nonpayable",
      "type": "function"
    },
    {
      "inputs": [
        {
          "internalType": "uint256",
          "name": "successFee_",
          "type": "uint256"
        }
      ],
      "name": "setSuccessFee",
      "outputs": [],
      "stateMutability": "nonpayable",
      "type": "function"
    },
    {
      "inputs": [
        {
          "internalType": "uint256",
          "name": "swapTCforTPFee_",
          "type": "uint256"
        }
      ],
      "name": "setSwapTCforTPFee",
      "outputs": [],
      "stateMutability": "nonpayable",
      "type": "function"
    },
    {
      "inputs": [
        {
          "internalType": "uint256",
          "name": "swapTPforTCFee_",
          "type": "uint256"
        }
      ],
      "name": "setSwapTPforTCFee",
      "outputs": [],
      "stateMutability": "nonpayable",
      "type": "function"
    },
    {
      "inputs": [
        {
          "internalType": "uint256",
          "name": "swapTPforTPFee_",
          "type": "uint256"
        }
      ],
      "name": "setSwapTPforTPFee",
      "outputs": [],
      "stateMutability": "nonpayable",
      "type": "function"
    },
    {
      "inputs": [
        {
          "internalType": "address",
          "name": "tcInterestCollectorAddress_",
          "type": "address"
        }
      ],
      "name": "setTCInterestCollectorAddress",
      "outputs": [],
      "stateMutability": "nonpayable",
      "type": "function"
    },
    {
      "inputs": [
        {
          "internalType": "uint256",
          "name": "tcInterestPaymentBlockSpan_",
          "type": "uint256"
        }
      ],
      "name": "setTCInterestPaymentBlockSpan",
      "outputs": [],
      "stateMutability": "nonpayable",
      "type": "function"
    },
    {
      "inputs": [
        {
          "internalType": "uint256",
          "name": "tcInterestRate_",
          "type": "uint256"
        }
      ],
      "name": "setTCInterestRate",
      "outputs": [],
      "stateMutability": "nonpayable",
      "type": "function"
    },
    {
      "inputs": [
        {
          "internalType": "uint256",
          "name": "tcMintFee_",
          "type": "uint256"
        }
      ],
      "name": "setTcMintFee",
      "outputs": [],
      "stateMutability": "nonpayable",
      "type": "function"
    },
    {
      "inputs": [
        {
          "internalType": "uint256",
          "name": "tcRedeemFee_",
          "type": "uint256"
        }
      ],
      "name": "setTcRedeemFee",
      "outputs": [],
      "stateMutability": "nonpayable",
      "type": "function"
    },
    {
      "inputs": [],
      "name": "shouldCalculateEma",
      "outputs": [
        {
          "internalType": "bool",
          "name": "",
          "type": "bool"
        }
      ],
      "stateMutability": "view",
      "type": "function"
    },
    {
      "inputs": [],
      "name": "stoppable",
      "outputs": [
        {
          "internalType": "bool",
          "name": "",
          "type": "bool"
        }
      ],
      "stateMutability": "view",
      "type": "function"
    },
    {
      "inputs": [],
      "name": "successFee",
      "outputs": [
        {
          "internalType": "uint256",
          "name": "",
          "type": "uint256"
        }
      ],
      "stateMutability": "view",
      "type": "function"
    },
    {
      "inputs": [
        {
          "internalType": "uint256",
          "name": "i_",
          "type": "uint256"
        },
        {
          "internalType": "uint256",
          "name": "qTC_",
          "type": "uint256"
        },
        {
          "internalType": "uint256",
          "name": "qTPmin_",
          "type": "uint256"
        },
        {
          "internalType": "uint256",
          "name": "qACmax_",
          "type": "uint256"
        }
      ],
      "name": "swapTCforTP",
      "outputs": [
        {
          "internalType": "uint256",
          "name": "qACFee",
          "type": "uint256"
        },
        {
          "internalType": "uint256",
          "name": "qTPMinted",
          "type": "uint256"
        },
        {
          "internalType": "uint256",
          "name": "qFeeToken",
          "type": "uint256"
        }
      ],
      "stateMutability": "payable",
      "type": "function"
    },
    {
      "inputs": [],
      "name": "swapTCforTPFee",
      "outputs": [
        {
          "internalType": "uint256",
          "name": "",
          "type": "uint256"
        }
      ],
      "stateMutability": "view",
      "type": "function"
    },
    {
      "inputs": [
        {
          "internalType": "uint256",
          "name": "i_",
          "type": "uint256"
        },
        {
          "internalType": "uint256",
          "name": "qTC_",
          "type": "uint256"
        },
        {
          "internalType": "uint256",
          "name": "qTPmin_",
          "type": "uint256"
        },
        {
          "internalType": "uint256",
          "name": "qACmax_",
          "type": "uint256"
        },
        {
          "internalType": "address",
          "name": "vendor_",
          "type": "address"
        }
      ],
      "name": "swapTCforTPViaVendor",
      "outputs": [
        {
          "internalType": "uint256",
          "name": "qACFee",
          "type": "uint256"
        },
        {
          "internalType": "uint256",
          "name": "qTPMinted",
          "type": "uint256"
        },
        {
          "internalType": "uint256",
          "name": "qFeeToken",
          "type": "uint256"
        }
      ],
      "stateMutability": "payable",
      "type": "function"
    },
    {
      "inputs": [
        {
          "internalType": "uint256",
          "name": "i_",
          "type": "uint256"
        },
        {
          "internalType": "uint256",
          "name": "qTC_",
          "type": "uint256"
        },
        {
          "internalType": "uint256",
          "name": "qTPmin_",
          "type": "uint256"
        },
        {
          "internalType": "uint256",
          "name": "qACmax_",
          "type": "uint256"
        },
        {
          "internalType": "address",
          "name": "recipient_",
          "type": "address"
        }
      ],
      "name": "swapTCforTPto",
      "outputs": [
        {
          "internalType": "uint256",
          "name": "qACFee",
          "type": "uint256"
        },
        {
          "internalType": "uint256",
          "name": "qTPMinted",
          "type": "uint256"
        },
        {
          "internalType": "uint256",
          "name": "qFeeToken",
          "type": "uint256"
        }
      ],
      "stateMutability": "payable",
      "type": "function"
    },
    {
      "inputs": [
        {
          "internalType": "uint256",
          "name": "i_",
          "type": "uint256"
        },
        {
          "internalType": "uint256",
          "name": "qTC_",
          "type": "uint256"
        },
        {
          "internalType": "uint256",
          "name": "qTPmin_",
          "type": "uint256"
        },
        {
          "internalType": "uint256",
          "name": "qACmax_",
          "type": "uint256"
        },
        {
          "internalType": "address",
          "name": "recipient_",
          "type": "address"
        },
        {
          "internalType": "address",
          "name": "vendor_",
          "type": "address"
        }
      ],
      "name": "swapTCforTPtoViaVendor",
      "outputs": [
        {
          "internalType": "uint256",
          "name": "qACFee",
          "type": "uint256"
        },
        {
          "internalType": "uint256",
          "name": "qTPMinted",
          "type": "uint256"
        },
        {
          "internalType": "uint256",
          "name": "qFeeToken",
          "type": "uint256"
        }
      ],
      "stateMutability": "payable",
      "type": "function"
    },
    {
      "inputs": [
        {
          "internalType": "uint256",
          "name": "i_",
          "type": "uint256"
        },
        {
          "internalType": "uint256",
          "name": "qTP_",
          "type": "uint256"
        },
        {
          "internalType": "uint256",
          "name": "qTCmin_",
          "type": "uint256"
        },
        {
          "internalType": "uint256",
          "name": "qACmax_",
          "type": "uint256"
        }
      ],
      "name": "swapTPforTC",
      "outputs": [
        {
          "internalType": "uint256",
          "name": "qACFee",
          "type": "uint256"
        },
        {
          "internalType": "uint256",
          "name": "qTPMinted",
          "type": "uint256"
        },
        {
          "internalType": "uint256",
          "name": "qFeeToken",
          "type": "uint256"
        }
      ],
      "stateMutability": "payable",
      "type": "function"
    },
    {
      "inputs": [],
      "name": "swapTPforTCFee",
      "outputs": [
        {
          "internalType": "uint256",
          "name": "",
          "type": "uint256"
        }
      ],
      "stateMutability": "view",
      "type": "function"
    },
    {
      "inputs": [
        {
          "internalType": "uint256",
          "name": "i_",
          "type": "uint256"
        },
        {
          "internalType": "uint256",
          "name": "qTP_",
          "type": "uint256"
        },
        {
          "internalType": "uint256",
          "name": "qTCmin_",
          "type": "uint256"
        },
        {
          "internalType": "uint256",
          "name": "qACmax_",
          "type": "uint256"
        },
        {
          "internalType": "address",
          "name": "vendor_",
          "type": "address"
        }
      ],
      "name": "swapTPforTCViaVendor",
      "outputs": [
        {
          "internalType": "uint256",
          "name": "qACFee",
          "type": "uint256"
        },
        {
          "internalType": "uint256",
          "name": "qTPMinted",
          "type": "uint256"
        },
        {
          "internalType": "uint256",
          "name": "qFeeToken",
          "type": "uint256"
        }
      ],
      "stateMutability": "payable",
      "type": "function"
    },
    {
      "inputs": [
        {
          "internalType": "uint256",
          "name": "i_",
          "type": "uint256"
        },
        {
          "internalType": "uint256",
          "name": "qTP_",
          "type": "uint256"
        },
        {
          "internalType": "uint256",
          "name": "qTCmin_",
          "type": "uint256"
        },
        {
          "internalType": "uint256",
          "name": "qACmax_",
          "type": "uint256"
        },
        {
          "internalType": "address",
          "name": "recipient_",
          "type": "address"
        }
      ],
      "name": "swapTPforTCto",
      "outputs": [
        {
          "internalType": "uint256",
          "name": "qACFee",
          "type": "uint256"
        },
        {
          "internalType": "uint256",
          "name": "qTPMinted",
          "type": "uint256"
        },
        {
          "internalType": "uint256",
          "name": "qFeeToken",
          "type": "uint256"
        }
      ],
      "stateMutability": "payable",
      "type": "function"
    },
    {
      "inputs": [
        {
          "internalType": "uint256",
          "name": "i_",
          "type": "uint256"
        },
        {
          "internalType": "uint256",
          "name": "qTP_",
          "type": "uint256"
        },
        {
          "internalType": "uint256",
          "name": "qTCmin_",
          "type": "uint256"
        },
        {
          "internalType": "uint256",
          "name": "qACmax_",
          "type": "uint256"
        },
        {
          "internalType": "address",
          "name": "recipient_",
          "type": "address"
        },
        {
          "internalType": "address",
          "name": "vendor_",
          "type": "address"
        }
      ],
      "name": "swapTPforTCtoViaVendor",
      "outputs": [
        {
          "internalType": "uint256",
          "name": "qACFee",
          "type": "uint256"
        },
        {
          "internalType": "uint256",
          "name": "qTPMinted",
          "type": "uint256"
        },
        {
          "internalType": "uint256",
          "name": "qFeeToken",
          "type": "uint256"
        }
      ],
      "stateMutability": "payable",
      "type": "function"
    },
    {
      "inputs": [
        {
          "internalType": "uint256",
          "name": "iFrom_",
          "type": "uint256"
        },
        {
          "internalType": "uint256",
          "name": "iTo_",
          "type": "uint256"
        },
        {
          "internalType": "uint256",
          "name": "qTP_",
          "type": "uint256"
        },
        {
          "internalType": "uint256",
          "name": "qTPmin_",
          "type": "uint256"
        },
        {
          "internalType": "uint256",
          "name": "qACmax_",
          "type": "uint256"
        }
      ],
      "name": "swapTPforTP",
      "outputs": [
        {
          "internalType": "uint256",
          "name": "qACFee",
          "type": "uint256"
        },
        {
          "internalType": "uint256",
          "name": "qTPMinted",
          "type": "uint256"
        },
        {
          "internalType": "uint256",
          "name": "qFeeToken",
          "type": "uint256"
        }
      ],
      "stateMutability": "payable",
      "type": "function"
    },
    {
      "inputs": [],
      "name": "swapTPforTPFee",
      "outputs": [
        {
          "internalType": "uint256",
          "name": "",
          "type": "uint256"
        }
      ],
      "stateMutability": "view",
      "type": "function"
    },
    {
      "inputs": [
        {
          "internalType": "uint256",
          "name": "iFrom_",
          "type": "uint256"
        },
        {
          "internalType": "uint256",
          "name": "iTo_",
          "type": "uint256"
        },
        {
          "internalType": "uint256",
          "name": "qTP_",
          "type": "uint256"
        },
        {
          "internalType": "uint256",
          "name": "qTPmin_",
          "type": "uint256"
        },
        {
          "internalType": "uint256",
          "name": "qACmax_",
          "type": "uint256"
        },
        {
          "internalType": "address",
          "name": "vendor_",
          "type": "address"
        }
      ],
      "name": "swapTPforTPViaVendor",
      "outputs": [
        {
          "internalType": "uint256",
          "name": "qACFee",
          "type": "uint256"
        },
        {
          "internalType": "uint256",
          "name": "qTPMinted",
          "type": "uint256"
        },
        {
          "internalType": "uint256",
          "name": "qFeeToken",
          "type": "uint256"
        }
      ],
      "stateMutability": "payable",
      "type": "function"
    },
    {
      "inputs": [
        {
          "internalType": "uint256",
          "name": "iFrom_",
          "type": "uint256"
        },
        {
          "internalType": "uint256",
          "name": "iTo_",
          "type": "uint256"
        },
        {
          "internalType": "uint256",
          "name": "qTP_",
          "type": "uint256"
        },
        {
          "internalType": "uint256",
          "name": "qTPmin_",
          "type": "uint256"
        },
        {
          "internalType": "uint256",
          "name": "qACmax_",
          "type": "uint256"
        },
        {
          "internalType": "address",
          "name": "recipient_",
          "type": "address"
        }
      ],
      "name": "swapTPforTPto",
      "outputs": [
        {
          "internalType": "uint256",
          "name": "qACFee",
          "type": "uint256"
        },
        {
          "internalType": "uint256",
          "name": "qTPMinted",
          "type": "uint256"
        },
        {
          "internalType": "uint256",
          "name": "qFeeToken",
          "type": "uint256"
        }
      ],
      "stateMutability": "payable",
      "type": "function"
    },
    {
      "inputs": [
        {
          "internalType": "uint256",
          "name": "iFrom_",
          "type": "uint256"
        },
        {
          "internalType": "uint256",
          "name": "iTo_",
          "type": "uint256"
        },
        {
          "internalType": "uint256",
          "name": "qTP_",
          "type": "uint256"
        },
        {
          "internalType": "uint256",
          "name": "qTPmin_",
          "type": "uint256"
        },
        {
          "internalType": "uint256",
          "name": "qACmax_",
          "type": "uint256"
        },
        {
          "internalType": "address",
          "name": "recipient_",
          "type": "address"
        },
        {
          "internalType": "address",
          "name": "vendor_",
          "type": "address"
        }
      ],
      "name": "swapTPforTPtoViaVendor",
      "outputs": [
        {
          "internalType": "uint256",
          "name": "qACFee",
          "type": "uint256"
        },
        {
          "internalType": "uint256",
          "name": "qTPMinted",
          "type": "uint256"
        },
        {
          "internalType": "uint256",
          "name": "qFeeToken",
          "type": "uint256"
        }
      ],
      "stateMutability": "payable",
      "type": "function"
    },
    {
      "inputs": [],
      "name": "tcHoldersInterestPayment",
      "outputs": [],
      "stateMutability": "nonpayable",
      "type": "function"
    },
    {
      "inputs": [],
      "name": "tcInterestCollectorAddress",
      "outputs": [
        {
          "internalType": "address",
          "name": "",
          "type": "address"
        }
      ],
      "stateMutability": "view",
      "type": "function"
    },
    {
      "inputs": [],
      "name": "tcInterestPaymentBlockSpan",
      "outputs": [
        {
          "internalType": "uint256",
          "name": "",
          "type": "uint256"
        }
      ],
      "stateMutability": "view",
      "type": "function"
    },
    {
      "inputs": [],
      "name": "tcInterestRate",
      "outputs": [
        {
          "internalType": "uint256",
          "name": "",
          "type": "uint256"
        }
      ],
      "stateMutability": "view",
      "type": "function"
    },
    {
      "inputs": [],
      "name": "tcMintFee",
      "outputs": [
        {
          "internalType": "uint256",
          "name": "",
          "type": "uint256"
        }
      ],
      "stateMutability": "view",
      "type": "function"
    },
    {
      "inputs": [],
      "name": "tcRedeemFee",
      "outputs": [
        {
          "internalType": "uint256",
          "name": "",
          "type": "uint256"
        }
      ],
      "stateMutability": "view",
      "type": "function"
    },
    {
      "inputs": [],
      "name": "tcToken",
      "outputs": [
        {
          "internalType": "contract MocTC",
          "name": "",
          "type": "address"
        }
      ],
      "stateMutability": "view",
      "type": "function"
    },
    {
      "inputs": [
        {
          "internalType": "uint256",
          "name": "",
          "type": "uint256"
        }
      ],
      "name": "tpCtarg",
      "outputs": [
        {
          "internalType": "uint256",
          "name": "",
          "type": "uint256"
        }
      ],
      "stateMutability": "view",
      "type": "function"
    },
    {
      "inputs": [
        {
          "internalType": "uint256",
          "name": "",
          "type": "uint256"
        }
      ],
      "name": "tpEma",
      "outputs": [
        {
          "internalType": "uint256",
          "name": "ema",
          "type": "uint256"
        },
        {
          "internalType": "uint256",
          "name": "sf",
          "type": "uint256"
        }
      ],
      "stateMutability": "view",
      "type": "function"
    },
    {
      "inputs": [
        {
          "internalType": "uint256",
          "name": "",
          "type": "uint256"
        }
      ],
      "name": "tpLiqPrices",
      "outputs": [
        {
          "internalType": "uint256",
          "name": "",
          "type": "uint256"
        }
      ],
      "stateMutability": "view",
      "type": "function"
    },
    {
      "inputs": [
        {
          "internalType": "uint256",
          "name": "",
          "type": "uint256"
        }
      ],
      "name": "tpMintFee",
      "outputs": [
        {
          "internalType": "uint256",
          "name": "",
          "type": "uint256"
        }
      ],
      "stateMutability": "view",
      "type": "function"
    },
    {
      "inputs": [
        {
          "internalType": "uint256",
          "name": "",
          "type": "uint256"
        }
      ],
      "name": "tpRedeemFee",
      "outputs": [
        {
          "internalType": "uint256",
          "name": "",
          "type": "uint256"
        }
      ],
      "stateMutability": "view",
      "type": "function"
    },
    {
      "inputs": [
        {
          "internalType": "uint256",
          "name": "",
          "type": "uint256"
        }
      ],
      "name": "tpTokens",
      "outputs": [
        {
          "internalType": "contract IMocRC20",
          "name": "",
          "type": "address"
        }
      ],
      "stateMutability": "view",
      "type": "function"
    },
    {
      "inputs": [],
      "name": "unpause",
      "outputs": [],
      "stateMutability": "nonpayable",
      "type": "function"
    },
    {
      "inputs": [],
      "name": "updateEmas",
      "outputs": [],
      "stateMutability": "nonpayable",
      "type": "function"
    },
    {
      "inputs": [
        {
          "internalType": "address",
          "name": "newImplementation",
          "type": "address"
        }
      ],
      "name": "upgradeTo",
      "outputs": [],
      "stateMutability": "nonpayable",
      "type": "function"
    },
    {
      "inputs": [
        {
          "internalType": "address",
          "name": "newImplementation",
          "type": "address"
        },
        {
          "internalType": "bytes",
          "name": "data",
          "type": "bytes"
        }
      ],
      "name": "upgradeToAndCall",
      "outputs": [],
      "stateMutability": "payable",
      "type": "function"
    }
  ],
  "transactionHash": "0x361ed10416c1d589917dcdff681c8028544cb0f7a81781917c7ecd87aca51676",
  "args": [],
  "numDeployments": 1,
  "bytecode": "0x60a08060405234620000e157306080526000549060ff8260081c166200008f575060ff8082160362000053575b6040516159139081620000e7823960805181818161288501528181612abc0152612eca0152f35b60ff90811916176000557f7f26b83ff96e1f2b6a682f133852f6798a09c465da95921460cefb3847402498602060405160ff8152a1386200002c565b62461bcd60e51b815260206004820152602760248201527f496e697469616c697a61626c653a20636f6e747261637420697320696e697469604482015266616c697a696e6760c81b6064820152608490fd5b600080fdfe608080604052600436101561001357600080fd5b60009060e08235811c91826301cded9c14613ed35750816301dde6ef14613eaf57816301f1b68414613e675781630579188f14613dbe578163073763b914613d9a5781630bb7f60814613d525781630c340a2414613d295781630c36d89714613d0a5781630d6ac46314613cc45781630db4965614613ca55781630e0a8fd214613c815781630f1e5e2b14613c3b5781630f6a46f314613bd1578163102fefac14613b765781631301a8f014613aed57816317574bc5146139e357816317df0ab814613997578163181770da1461394a5781631867e2f51461392b5781631a89b8f21461380d5781631f1138a6146137915781631fb0dda01461376a5781631fe6a7ad146137305781632069f7531461370c57816323b98cde146136e557816325bc6c41146136bb57816327eab2a11461367557816328b7a82e146131dd5781632a20d57d146131be5781632c43bd3b1461319a5781632d88af4a146131435781632ded50f0146131245781632e9680e4146130a85781633174125814613041578163333431fd1461302257816333421c3814612f315781633659cfe614612e985781633915edcb14612e695781633bc4ac0a14612e455781633dbc50a914612dfd5781633f4ba83a14612d825781634017936a14612d3d578163407f0e3414612d1e5781634310adc614612cc25781634454ae8b14612c5d578163471a80e314612c2d5781634b74600114612be05781634cffbaab14612b905781634d977e7814612b715781634e1f907a14612b475781634f0f27ee14612b285781634f1ef28614612a345781635210570c14612a0e5781635241271c146129df57816352a0331d1461294857816352d1902d14612872578163533a4bea1461281f578163543aeb48146127fb57816354a73c62146127ad5781635c616a73146125a35781635c975abb1461257d5781635d65d045146125495781635e1e8928146124fc57816360009e0b146124d2578163647846a5146124a857816364ec230a14612484578163662013f41461246957816368274357146124405781636b5488df1461242157816370713468146123fd57816371cd722d146122f7578163735d3960146122b15781637554fffd146122925781637750ba0c1461226e57816379f9a91c1461224f5781637a193c31146122305781637a4ff1d91461220c5781637a727fe8146121ed5781637af5758c146121c95781637c287999146121705781637cba23831461214c5781637d8e03141461211d5781637f01c715146120f35781637f4a4fe0146120d4578163826fcd58146120b35781638456cb591461201c5781638ce6c2c114611fcc5781638cfa424114611fad5781638e2bdb8614611f835781638f1a383a14611f5c5781638f27ec6c14611f0d578163904aa85b14611eee5781639195c85b14611ecd5781639853c35a14611ea35781639abb14c914611e5f5781639ad6659d14611e2a5781639bdd7cce14611ae25781639cabfc0014611a955781639fd0506d14611a68578163a17bfb9614611a18578163a8e9ac30146119f6578163aea038dc146119d7578163b9fa6413146119b8578163bad25a211461181e578163bb2ac7881461176e578163bb4872de1461174b578163becaca6b14611727578163c00f538d14611703578163c039cc69146116c3578163c84353c91461169f578163ceecc55a146115ad578163cf351c1d14611567578163d1a0faa01461154b578163da2f567d146113f9578163db796072146113ba578163de08160f1461137d578163de8d520a1461134c578163e23c135c146112fc578163e4012945146110b6578163e4c0aaf41461106c578163e6a683e014611026578163e6b1627c14610fe3578163e7c2597814610fbf578163e8859a1514610fa4578163f13f405414610f7a578163f21fcc0014610c3f578163f26114aa14610bd857508063f280877814610bb4578063f30b561414610b95578063f375cfba14610b76578063fa6e83bd14610b57578063fa79589e14610b05578063fbbb53a7146108f6578063fda70f8b146108d4578063fed0ade4146108825763ffe31539146105fb57600080fd5b606036600319011261087d576044356001600160a01b0381169081900361087d576106ce6040519261062e60a08561409b565b6004358452602084019260243584523360408601523360608601526080850152610656614c54565b61065e615888565b670de0b6b3a764000061069061068a610681610678614a25565b61017b54614d1e565b88519291614d61565b90614778565b049061069a614abf565b506040850151608086015161016e546106c392909185916001600160a01b039182169116614d90565b96918495919561464c565b945180861161085f5750841561084d5760409561077061080d9460018060a01b03898501511660018060a01b03606086015116907fa02482a2126fa394339a603e5b911cbb1bfc18ea48cd9c0896f81d083eff450f8a8751610756885160208a015160408b015160608c0151918d608060018060a01b03910151169360405197889788614ae6565b0390a3835160608501516001600160a01b03169190614c76565b6102535461078c908790309033906001600160a01b0316614b1e565b818701516080909201516001600160a01b0392831692166107ab6152fb565b81511561081f578761080892610800670de0b6b3a76400006107d261016d54845190614778565b046101636107e182825461464c565b90556107fa60018060a01b0361017854169184516145c4565b90615352565b015190615352565b615352565b600161012f5582519182526020820152f35b610178546020830151610808936060929091610844916001600160a01b03168761539c565b0151908361539c565b60405163f3e39b5d60e01b8152600490fd5b6044908660405191630b63f1a760e01b835260048301526024820152fd5b600080fd5b6106ce82610891366004614059565b90604095939594929451956108a760a08861409b565b8652602086019485523360408701526001600160a01b039081166060870152166080850152610656614c54565b50346108f357806003193601126108f357602061016e54604051908152f35b80fd5b506109023660046140ef565b919394926040519561091560c08861409b565b86526020860152604085019384523360608601526001600160a01b0390811660808601521660a0840152610947614c54565b61094f615888565b610957615766565b61095f6156a8565b9061099e610984610971875185614659565b519361097e8589516150cc565b83614d1e565b90848851946109988260208c015197615600565b90615121565b818110610ae7575050906109b96109fd9260208601516158a9565b906109c2614abf565b50606085015160a086015186516106c3926001600160a01b039081169286929116906109f090610176613f78565b90549060031b1c92614d90565b945180861161085f5750841561084d57604095610aab61080d94835160018060a01b0360608601511660018060a01b03608087015116917f05bc04db8c37d0ea6bd738180855eabd873019cfa7321571cc3511dd8af05eaa8b6020890151610a8c89518b8b602081015160406060908301519201519260a0600180821b03910151169360405197889788614ae6565b0390a48351602085015160808601516001600160a01b03169291615033565b61025354610ac7908790309033906001600160a01b0316614b1e565b606082015160a0909201516001600160a01b0392831692166107ab6152fb565b604492506040519163c39b739f60e01b835260048301526024820152fd5b50346108f35760203660031901126108f3576020610b4f610b41600435610b2a6156a8565b90610b49610b388484614659565b5194859361466d565b959094615600565b9061517c565b604051908152f35b50346108f357806003193601126108f357602061016c54604051908152f35b50346108f357806003193601126108f357602061017354604051908152f35b50346108f357806003193601126108f357602061016354604051908152f35b50346108f35760203660031901126108f357610bce6157fa565b60043561016e5580f35b905034610c3b573660031901126108f357610bf16157fa565b6040516379308a5560e11b6020820152610c3790610c2581610c17600460248301615568565b03601f19810183528261409b565b610220546001600160a01b031661528b565b5080f35b5080fd5b82606036600319011261087d57604051610c5a60c08261409b565b60043581526024356020820152604081019060443582523360608201523360808201528260a0820152610c8b614c54565b610c93615888565b610c9b614a25565b92610cc0610caa835186614659565b5194610cb78685516150cc565b61017c54614d1e565b919094610cdd602085015193610cd7838751615600565b97614d61565b95670de0b6b3a763ffff198101908111610f665781610cff610d049286614778565b61478b565b95670de0b6b3a7640000870290878204670de0b6b3a76400001488151715610f5057610d2f9161478b565b95670de0b6b3a7640000840293808504670de0b6b3a76400001490151715610f5057610d61610d6792610da49561478b565b9061464c565b90610d70614abf565b50606084015160a085015161017454610d9992909185916001600160a01b039182169116614d90565b95918495919561464c565b9551808711610f325750851561084d57610f2e94610e89610f0b9489845160018060a01b03606087015116907f96b17e63c9333b49078411dfac5196a8c146d776fce88f04cc554fa1f34fb89f8c60018060a01b0360808a01511694610e7160208b0151928b8b8051602082015190606060408401519301519360a0600180821b03910151169460405198899889969390989794919260e0969361010089019a8952602089015260408801526060870152608086015260a085015260c084015260018060a01b0316910152565b0390a460808401516001600160a01b0316908a614c76565b610ea7825184602085015160018060a01b0360808701511692615033565b61025354610ec3908890309033906001600160a01b0316614b1e565b606082015160a0909201516001600160a01b039283169216610ee36152fb565b81511561081f57604061080892610800670de0b6b3a76400006107d261016d54845190614778565b600161012f55604051938493846040919493926060820195825260208201520152565b0390f35b6044908760405191630b63f1a760e01b835260048301526024820152fd5b634e487b7160e01b600052601160045260246000fd5b634e487b7160e01b83526011600452602483fd5b82346108f357806003193601126108f357610162546040516001600160a01b039091168152602090f35b82346108f357806003193601126108f3576020610b4f6155c9565b82346108f357806003193601126108f357602060ff61017d54166040519015158152f35b82346108f35760203660031901126108f357600435906101b89081548310156108f3576040611012848461407f565b506001815491015482519182526020820152f35b82346108f35760203660031901126108f3576004356001600160a01b0381169081900361087d576110556157fa565b61022080546001600160a01b031916909117905580f35b82346108f35760203660031901126108f3576004356001600160a01b03811690819003610c3b5761109b6157fa565b6bffffffffffffffffffffffff60a01b609754161760975580f35b82606036600319011261087d576044356001600160a01b0381169081900361087d57604051916110e760a08461409b565b6004358352602083019160243583523360408501526060840152608083015261110e614c54565b611116615888565b61111e615766565b6111316111296156a8565b819291614d1e565b90916111408284875193615442565b8181106112de575050670de0b6b3a76400009161068a61116292865192614d61565b04801561084d576111a990611175614abf565b506040840151608085015161016f5461119e92909184916001600160a01b039182169116614d90565b9291829491946145c4565b93518085106112c0575060409461080d92611246869360018060a01b03898501511660018060a01b03606086015116907ff47ea38b2dbacd4ea4e4c63f21b558d8acd7cf60181e4ca6c2e09bf1ef6c91df87875161122d885160208a015160408b015160608c0151918d608060018060a01b03910151169360405197889788614ae6565b0390a38351898501516001600160a01b031691906153bf565b8187015160608301516080909301516001600160a01b0393841693908116911661126e6152fb565b82511561129657508761080892610800670de0b6b3a76400006107d261016d54845190614778565b906060610808936112b860018060a01b0361017854166020830151908661539c565b01519161539c565b60449085604051916354cde31360e01b835260048301526024820152fd5b604492506040519163a5db715d60e01b835260048301526024820152fd5b82346108f357806003193601126108f357611316306145d1565b61016390611326825480926145c4565b61132e578280f35b80610d616113449261133f306145d1565b6145c4565b905581808280f35b82346108f357806003193601126108f3576020610b4f61137261136d614a25565b61466d565b9050610163546145c4565b82346108f35760203660031901126108f357600435906101769081548310156108f35760206113ac8484613f78565b90546040519160031b1c8152f35b905034610c3b573660031901126108f3576113d36157fa565b604051636dbcb03960e11b6020820152610c3790610c2581610c17600460248301615568565b6114ae90610f2e84610f0b61140f366004613fa6565b939096946114236040949394519a8b61409b565b895260208901526040880152606087015260808601933385526114bd60018060a01b039889988980941660a08201528360c0820195168552611463614c54565b61146b615888565b611473614abf565b50604051630a899e9f60e41b6020820152906114939060248301906152ad565b60e481526114a36101048261409b565b83610220541661528b565b60208082518301019101615230565b939299919a90976114d78b83610253541630903390614b1e565b5116935116906114e56152fb565b82511561153057610808926108006040926107fa670de0b6b3a764000061151161016d54865190614778565b049161016361152184825461464c565b905561017854169184516145c4565b6108089261084460609261017854166020830151908761539c565b82346108f357806003193601126108f357611564615766565b80f35b82346108f35760203660031901126108f3576004356001600160a01b0381169081900361087d576115966157fa565b61016180546001600160a01b031916909117905580f35b905060a0366003190112610c3b5790610f2e6114ae92610f0b604051936115d66101008661409b565b6004358552602085016024358152604086019360443585526060870160643581526080880190608435825260a089019633885260c08a01933385528a019486865261161f614c54565b611627615888565b61162f614abf565b50604051631c280ce160e01b60208201529a5160248c01525160448b01525160648a01525160848901525160a488015284516001600160a01b0390811660c48901529051811660e48801528151811661010480890191909152875296879687916114bd916114a36101248261409b565b82346108f35760203660031901126108f3576116b96157fa565b60043561017e5580f35b82346108f357806003193601126108f3576020610b4f6116f66116fd6116ea61136d614a25565b610163939193546145c4565b91826145c4565b906158a9565b82346108f35760203660031901126108f35761171d6157fa565b60043561016f5580f35b82346108f35760203660031901126108f3576117416157fa565b60043561016b5580f35b82346108f357806003193601126108f357602060ff60ca54166040519015158152f35b6114ae610f2e6114bd92610f0b86611787366004613fdf565b92611798604093929351978861409b565b865260208601526040850152606084015260808301923384523360a082015260c08101908282526117c7614c54565b6117cf615888565b6117d7614abf565b50604051630a899e9f60e41b6020820152906117f79060248301906152ad565b60e481526118076101048261409b565b60018060a01b03978897889283610220541661528b565b6118293660046140ef565b91926040519461183a60c08761409b565b85526020850152604084019283523360608501526001600160a01b0390811660808501521660a083015261186c614c54565b611874615888565b6118df6118a9611882614a25565b61189d611890865183614659565b51916106788388516150cc565b505060208501516158a9565b6118b1614abf565b50606084015160a0850151855161119e926001600160a01b039081169285929116906109f090610177613f78565b93811561084d57518085106112c057508461080d9261198f86936040985160018060a01b0360608601511660018060a01b03608087015116917fc199b22e56f6f63b8b777b6b91d1915937ecd5d468e5204ad0470ce3fe38492288602089015161197089518b8b602081015160406060908301519201519260a0600180821b03910151169360405197889788614ae6565b0390a48351602085015160608601516001600160a01b0316929161545a565b6060820151608083015160a0909301516001600160a01b0393841693908116911661126e6152fb565b82346108f357806003193601126108f357602061018554604051908152f35b82346108f357806003193601126108f357602061016f54604051908152f35b82346108f357806003193601126108f35760206101b954431015604051908152f35b82611a24366004614001565b9092939160405194611a3760c08761409b565b8552602085015260408401928352336060850181905260808501526001600160a01b031660a0840152610947614c54565b82346108f357806003193601126108f35760ca5460405160109190911c6001600160a01b03168152602090f35b82346108f35760203660031901126108f3576004356001600160a01b0381169081900361087d57604082819281526101686020522060ff6001825492015416825191825215156020820152f35b9050611aef366004613f4a565b919593611b0360409694929651948561409b565b8352602083015260408201948552606082019384523360808301526001600160a01b031660a082015260c08101829052611b3b614c54565b611b43615888565b611b4b615766565b611b536156a8565b9290611b70611b63845186614659565b5194610cb78686516150cc565b9091670de0b6b3a763ffff1990818101908111611e1657611b919087614778565b611b9c878751615600565b918201918211611e1657611bd2611bbf670de0b6b3a764000093611bdc9361478b565b611bcd8660208a0151614778565b614778565b610166549061478b565b049651808811611df85750611bf690602085015192614d61565b93670de0b6b3a7640000870290878204670de0b6b3a76400001488151715610f5057611c219161478b565b801561084d57670de0b6b3a7640000611c40611c8496611c4794614778565b049061464c565b90611c50614abf565b50608083015160c084015161017354611c7992909185916001600160a01b039182169116614d90565b9391829691966145c4565b9551808710611dda575092610f0b92611d888793611d6f610f2e98978b865160018060a01b03608089015116907f4f2e90ce553a2d0d488006729bf87c9312b555556721bb061873911a8539d18a60018060a01b0360a08b0151169360208b0151611d528d8d8d8051602082015190606060408401519301519360c060018060a01b03910151169460405198899889969390989794919260e0969361010089019a8952602089015260408801526060870152608086015260a085015260c084015260018060a01b0316910152565b0390a4602086015160808701516001600160a01b031691906153bf565b835160808501516001600160a01b031691908b9061545a565b608082015160a083015160c0909301516001600160a01b03938416939081169116611db16152fb565b8251156112965750604061080892610800670de0b6b3a76400006107d261016d54845190614778565b60449087604051916354cde31360e01b835260048301526024820152fd5b6044908860405191637a031da360e11b835260048301526024820152fd5b634e487b7160e01b85526011600452602485fd5b82346108f357806003193601126108f3576020611e51611e4b61136d614a25565b9061481c565b61017c541015604051908152f35b82604036600319011261087d5760405190611e7b60a08361409b565b600435825260208201906024358252336040840152336060840152608083015261110e614c54565b82346108f357806003193601126108f357610178546040516001600160a01b039091168152602090f35b82346108f35760203660031901126108f3576020610b4f33336004356154d6565b82346108f35760203660031901126108f3576020610b4f60043561494f565b82611f19366004614001565b90929160405192611f2b60c08561409b565b8352602083015260408201928352336060830181905260808301526001600160a01b031660a0820152610c8b614c54565b82346108f357806003193601126108f3576020611f7a61136d614a25565b50604051908152f35b82346108f357806003193601126108f357610182546040516001600160a01b039091168152602090f35b82346108f357806003193601126108f357602061017c54604051908152f35b82611fd83660046140ef565b91939260405193611fea60c08661409b565b84526020840152604083019384523360608401526001600160a01b0390811660808401521660a0820152610c8b614c54565b82346108f357806003193601126108f357612035615888565b60ca54601081901c6001600160a01b031633036120a15760ff81161561208f576101009061ff0019161760ca557f62e78cea01bee320cd4e420270b5ea74000d11b0c9f74754ebdbfc544b05a2586020604051338152a180f35b60405163866099c360e01b8152600490fd5b604051631d77d47760e21b8152600490fd5b82346108f357806003193601126108f3576020610b4f611e4b61136d614a25565b82346108f357806003193601126108f357602061018454604051908152f35b82346108f357806003193601126108f3576101ed546040516001600160a01b039091168152602090f35b82346108f35760203660031901126108f3576004359061017a9081548310156108f35760206113ac8484613f78565b82346108f35760203660031901126108f3576121666157fa565b60043561017b5580f35b905061217d366004613f4a565b91959361219160409694929651948561409b565b835260208301526040820194855260608201938452336080830181905260a08301526001600160a01b031660c0820152611b3b614c54565b82346108f35760203660031901126108f3576121e36157fa565b6004356101725580f35b82346108f357806003193601126108f35760206101ba54604051908152f35b82346108f35760203660031901126108f3576122266157fa565b6004356101735580f35b82346108f357806003193601126108f357602061016654604051908152f35b82346108f357806003193601126108f357602061017454604051908152f35b82346108f35760203660031901126108f3576122886157fa565b60043561016d5580f35b82346108f357806003193601126108f357602061016b54604051908152f35b82346108f35760203660031901126108f3576004356001600160a01b0381169081900361087d576122e06157fa565b61018280546001600160a01b031916909117905580f35b82816003193601126108f3576001600160a01b039160a435838116919082900361087d5760c4359184831680930361087d578493610f2e93856114bd6114ae610f0b95836040519161234b6101008461409b565b6004358352602083016024358152604084016044358152606085019060643582526080860192608435845260a087019d8e33905260c0880195865287019a8b52612393614c54565b61239b615888565b6123a3614abf565b5060405196631c280ce160e01b60208901525160248801525160448701525160648601525160848501525160a4840152818a511660c4840152511660e482015283855116610104908183015281526114a36101248261409b565b82346108f35760203660031901126108f3576124176157fa565b6004356101705580f35b82346108f357806003193601126108f357602061017b54604051908152f35b82346108f357806003193601126108f3576124596157fa565b600160ff1960ca54161760ca5580f35b82346108f357806003193601126108f3576020611f7a6156a8565b82346108f35760203660031901126108f35761249e6157fa565b6004356101835580f35b82346108f357806003193601126108f357610161546040516001600160a01b039091168152602090f35b82346108f357806003193601126108f357610165546040516001600160a01b039091168152602090f35b612507366004614001565b90916040519361251860c08661409b565b8452602084015260408301918252336060840181905260808401526001600160a01b031660a083015261186c614c54565b82346108f35760403660031901126108f3576024356001600160a01b038116810361087d57610b4f602091336004356154d6565b82346108f357806003193601126108f357602060ff60ca5460081c166040519015158152f35b82346108f357806003193601126108f3576125bc615888565b61017f8054431061279b5761017e54430190557fd3c59bda47e141a8ec5a33d241b7f71b86e30d359f83a9227d912858b60404fc8180a16125fb6152fb565b806101695461260981614852565b90835b8181106126d057505081612689575b604051916040830190835260209060408285015282518091528160608501930191855b82811061267557867fae5116a8119d08673a0f1dfa7546b95da4bd54bb17feda7c61130ac7859152f687870388a1600161012f5580f35b83518552938101939281019260010161263e565b906126a1670de0b6b3a76400009161016b5490614778565b04906101636126b18382546145c4565b9055610178546126cb9083906001600160a01b0316615352565b61261b565b6126d98161494f565b6126e381836150cc565b85610180916126f28484613f78565b90549060031b1c9082821361270e575b5050505060010161260c565b8461275283600197969a61273b61274161276f9761275897670de0b6b3a764000093849161016c54614778565b04614778565b0461274c858d614659565b5261464c565b98613f78565b819391549060031b91821b91600019901b19161790565b905561279261277e8286614659565b5187848060a01b0361017954169184615033565b90858780612702565b60405163101b685960e01b8152600490fd5b826127b9366004614001565b90929391604051946127cc60c08761409b565b85526020850152604084019283523360608501526001600160a01b0316608084015260a083015261186c614c54565b82346108f35760203660031901126108f3576128156157fa565b6004356101755580f35b82346108f35760203660031901126108f3576004356001600160a01b038116810361087d57611564906128506157fa565b6101ed80546001600160a01b0319166001600160a01b03909216919091179055565b82346108f357806003193601126108f3577f00000000000000000000000000000000000000000000000000000000000000006001600160a01b031630036128dd5760206040517f360894a13ba1a3210667c828492db98dca3e2076cc3735a920a3ca505d382bbc8152f35b60405162461bcd60e51b815260206004820152603860248201527f555550535570677261646561626c653a206d757374206e6f742062652063616c60448201527f6c6564207468726f7567682064656c656761746563616c6c00000000000000006064820152608490fd5b6114ae90610f2e84610f0b61295e366004613f4a565b9593612970604094929451998a61409b565b885260208801526040870152606086015260808501923384523360a087015260c08601906114bd60018060a01b039889988980941685526129af614c54565b6129b7615888565b6129bf614abf565b5060405163f1cc804760e01b6020820152906114939060248301906152ad565b82346108f35760203660031901126108f357600435906101779081548310156108f35760206113ac8484613f78565b82346108f357806003193601126108f357612a276157fa565b60ff1960ca541660ca5580f35b8260403660031901126108f3576001600160a01b03600435818116810361087d5782916024359167ffffffffffffffff8311612b235736602384011215612b23578260040135612a83816140d3565b92612a91604051948561409b565b8184523660248387010111612b1f5761156495602083612b12946024600199018389013786010152807f00000000000000000000000000000000000000000000000000000000000000001690612ae98230141561411a565b7f360894a13ba1a3210667c828492db98dca3e2076cc3735a920a3ca505d382bbc54161461417b565b612b1a6157fa565b6141dc565b8580fd5b505050fd5b82346108f357806003193601126108f357602061016d54604051908152f35b82346108f357806003193601126108f357610179546040516001600160a01b039091168152602090f35b82346108f357806003193601126108f357602061017e54604051908152f35b82612b9c366004614001565b9092939160405194612baf60c08761409b565b85526020850152604084019283523360608501526001600160a01b0316608084015260a08301819052610947614c54565b82346108f35760203660031901126108f357600435906101699081548310156108f3576040612c0f848461407f565b50805460019091015482519182526001600160a01b03166020820152f35b606036600319011261087d576044356001600160a01b0381169081900361087d5760405190611e7b60a08361409b565b82610f2e612c6c366004613f4a565b9593612c7e604094929451988961409b565b8752602087015260408601526060850152610f0b608085019133835260018060a01b03958680961660a0820152856114bd6114ae60c08401938585526129af614c54565b82606036600319011261087d576044356001600160a01b0381169081900361087d576106ce60405192612cf660a08561409b565b6004358452602084019260243584523360408601526060850152806080850152610656614c54565b82346108f357806003193601126108f357602061017054604051908152f35b82346108f357806003193601126108f3576020610b4f612d6c612d7c612d76612d646156a8565b93909361466d565b81819392956151f9565b92614d61565b90615161565b82346108f357806003193601126108f35760ca5460ff8160081c1615612deb57601081901c6001600160a01b031633036120a15761ff00191660ca557f5db9ee0a495bf2e6ff9c91a7834c1ba4fdd244a5e8aa4e537bd38aeae4b073aa6020604051338152a180f35b604051637c7fd07960e01b8152600490fd5b612e08366004614059565b9060405193612e1860a08661409b565b8452602084019283523360408501526001600160a01b03908116606085015216608083015261110e614c54565b82346108f35760203660031901126108f357612e5f6157fa565b6004356101ba5580f35b82346108f35760203660031901126108f3576004359061016a9081548310156108f35760206113ac8484613f78565b82346108f35760203660031901126108f3576004356001600160a01b03808216820361087d5761156491612ef78285937f00000000000000000000000000000000000000000000000000000000000000001690612ae98230141561411a565b612eff6157fa565b612f08826140d3565b90612f16604051928361409b565b828252601f19612f25846140d3565b013660208401376141dc565b82346108f357806003193601126108f357612f4a615888565b61017d805460ff811680613014575b80612ffa575b612f67578280f35b61ff0019166101001790556040517f8b77276c97a5709f0d6db52329848a254eb760ce8be80d281799f633bdb69e838280a16101655482906001600160a01b0316803b15610c3b5782600481848094638456cb5960e01b83525af18015612fed57612fdd575b5050612fd7614884565b81808280f35b612fe69161409b565b8181612fcd565b50604051903d90823e3d90fd5b50613009611e4b61136d614a25565b61017c541015612f5f565b5060ff8160081c1615612f59565b82346108f357806003193601126108f357602061017154604051908152f35b6114ae90610f2e84610f0b613057366004613f4a565b9593613069604094929451998a61409b565b885260208801526040870152606086015260808501923384523360a087015260c08601906114bd60018060a01b03988998898094168552611463614c54565b6114ae610f2e6114bd92610f0b866130c1366004614027565b60409b939a929b95919551916130d96101008461409b565b825260208201948552604082019a8b52606082019b8c526080820195865260a0820198338a5260c083019033825283019660018060a01b039d8e9d8e98898096168b52612393614c54565b82346108f357806003193601126108f357602061017554604051908152f35b82346108f35760203660031901126108f3576004356001600160a01b0381168103610c3b576131706157fa565b60ca805462010000600160b01b03191660109290921b62010000600160b01b031691909117905580f35b82346108f35760203660031901126108f3576131b46157fa565b60043561017c5580f35b82346108f357806003193601126108f357602061017254604051908152f35b82346108f3576103803660031901126108f357805460ff8160081c161590818092613668575b8015613651575b156135f55760ff1981166001178355816135e4575b50610364356001600160a01b038116908190036135e05761025380546001600160a01b0319169091179055815460081c60ff1661325b81614a5f565b610304356001600160a01b038116908190036135c65761022080546001600160a01b03191690911790556001600160a01b036102c435908116908190036135c6576102e4356001600160a01b03811681036135dc576001916132bc84614a5f565b6132c584614a5f565b6132ce84614a5f565b6132d784614a5f565b6bffffffffffffffffffffffff60a01b60975416176097556132f883614a5f565b60ca5490620100008360b01b039060101b169061ff018360b01b031916171760ca5561332381614a5f565b670de0b6b3a764000060a435106135ca5761333f60e4356158cd565b61334b610104356158cd565b613357610124356158cd565b613363610144356158cd565b61336f610164356158cd565b61337b610184356158cd565b6133876101a4356158cd565b6133936101c4356158cd565b61339f6101e4356158cd565b6133b76133b2610224356102043561464c565b6158cd565b6004356001600160a01b038116908190036135c65761016180546001600160a01b03191690911790556024356001600160a01b03811681036135c65761016280546001600160a01b0319166001600160a01b0392831617905560443590811681036135c65761016580546001600160a01b0319166001600160a01b0392831617905560643590811681036135c65761017880546001600160a01b0319166001600160a01b03928316179055608435908116908190036135c65761017980546001600160a01b031916909117905560a43561017b5560c43561017c5560e43561016d556101043561016e556101243561016f556101443561017055610164356101715561018435610172556101a435610173556101c435610174556101e435610175556102043561016b556102243561016c556102443561017e8190556001600160a01b0361026435908116908190036135dc5761018280546001600160a01b031916909117905561028435610183556102a4356101848190554391820161017f55016101855561017d805461ffff191690556103243561355682614a5f565b80156135ca576101ba81905543016101b955610344356001600160a01b03811681036135c65761285061358892614a5f565b61358f5780f35b61ff001981541681557f7f26b83ff96e1f2b6a682f133852f6798a09c465da95921460cefb3847402498602060405160018152a180f35b8380fd5b604051632a9ffab760e21b8152600490fd5b8480fd5b8280fd5b61ffff19166101011782558261321f565b60405162461bcd60e51b815260206004820152602e60248201527f496e697469616c697a61626c653a20636f6e747261637420697320616c72656160448201526d191e481a5b9a5d1a585b1a5e995960921b6064820152608490fd5b50303b15801561320a5750600160ff82161461320a565b50600160ff821610613203565b82346108f35760203660031901126108f3576004356001600160a01b03811690819003610c3b576136a46157fa565b61017980546001600160a01b031916909117905580f35b82346108f357806003193601126108f357610253546040516001600160a01b039091168152602090f35b82346108f357806003193601126108f357602060ff61017d5460081c166040519015158152f35b82346108f35760203660031901126108f3576137266157fa565b6004356101745580f35b82346108f35760203660031901126108f357600435801515809103610c3b576137576157fa565b61017d9060ff8019835416911617905580f35b82346108f357806003193601126108f3576020610b4f61378b61136d614a25565b90614d61565b6114ae610f2e6114bd610f0b866137a9366004614027565b60409b94959198939a929b51916137c26101008461409b565b825260208201958652604082019a8b52606082019b8c526080820198895260a0820198338a5260c083019060018060a01b039d8e9d8e988980961685528601998b8b52612393614c54565b82613819366004614001565b9092916040519261382b60c08561409b565b83526020830152604082019283523360608301526001600160a01b0316608082015260a0810183905261385c614c54565b613864615888565b61386c614a25565b9261387b610caa835186614659565b94613896602085015196613890838751615600565b93614d61565b91670de0b6b3a763ffff1981019081116139175781610cff6138b89289614778565b91670de0b6b3a76400008302838104670de0b6b3a76400001484151715611e1657906138e39161478b565b95670de0b6b3a7640000810290808204670de0b6b3a764000014901517156139175791610d61610d6792610da4959461478b565b634e487b7160e01b84526011600452602484fd5b82346108f357806003193601126108f357602061017f54604051908152f35b8260603660031901126108f3576040519061396660c08361409b565b60043582526024356020830152604082019060443582523360608401523360808401528060a0840152610947614c54565b8260603660031901126108f357604051906139b360c08361409b565b600435825260243560208301526040820190604435825233606084015233608084015260a083015261186c614c54565b826139ef366004613fdf565b9392613a0260409693929651938461409b565b8252602082015260408101938452606081019283523360808201523360a08201528160c0820152613a31614c54565b613a39615888565b613a41615766565b613a496156a8565b9290613a59611b63845186614659565b9091670de0b6b3a763ffff1990818101908111611e1657613a7a9087614778565b613a85878751615600565b918201918211611e1657611bd2611bbf670de0b6b3a764000093613aa89361478b565b049651808811611df85750613ac290602085015192614d61565b93670de0b6b3a76400008702878104670de0b6b3a764000014881517156139175790611c219161478b565b6114ae610f2e6114bd92610f0b86613b06366004613fdf565b92613b17604093929351978861409b565b865260208601526040850152606084015260808301923384523360a082015260c0810190828252613b46614c54565b613b4e615888565b613b56614abf565b5060405163f1cc804760e01b6020820152906117f79060248301906152ad565b9050613b83366004613fa6565b929694613b986040979592939751958661409b565b8452602084015260408301958652606083019485523360808401526001600160a01b0390811660a08401521660c0820152613a31614c54565b6114ae90610f2e84610f0b613be7366004613fa6565b93909694613bfb6040949394519a8b61409b565b895260208901526040880152606087015260808601933385526114bd60018060a01b039889988980941660a08201528360c08201951685526129af614c54565b82346108f35760203660031901126108f3576004356001600160a01b03811690819003610c3b57613c6a6157fa565b61016280546001600160a01b031916909117905580f35b82346108f35760203660031901126108f357613c9b6157fa565b6004356101715580f35b82346108f357806003193601126108f357602061018354604051908152f35b82346108f35760203660031901126108f3576004356001600160a01b03811690819003610c3b57613cf36157fa565b61017880546001600160a01b031916909117905580f35b82346108f357806003193601126108f35760206101b954604051908152f35b82346108f357806003193601126108f3576097546040516001600160a01b039091168152602090f35b8260403660031901126108f35760405190613d6e60a08361409b565b60043582526106ce60208301916024358352336040850152336060850152806080850152610656614c54565b82346108f35760203660031901126108f357613db46157fa565b6004356101845580f35b82346108f357806003193601126108f357613dd7615888565b613ddf6152fb565b61018580544310613e55576101845443019055613e4c670de0b6b3a7640000613e0f610163546101835490614778565b047f0e37fda283839477a1b77e29acf8336c0e13a5daa967913df0fe5ad258c0822f6020604051838152a1610182546001600160a01b0316615352565b600161012f5580f35b60405163acce20e560e01b8152600490fd5b82346108f35760203660031901126108f357600435906101679081548310156108f3576020613e968484613f78565b905460405160039290921b1c6001600160a01b03168152f35b82346108f35760203660031901126108f357613ec96157fa565b60043561016c5580f35b613ef2610f2e8584613ee6366004613f4a565b9790948994929461409b565b8752602087015260408601526060850152610f0b608085019133835260018060a01b03958680961660a0820152856114bd6114ae60c0840193858552611463614c54565b35906001600160a01b038216820361087d57565b908160a091031261087d57803591602082013591604081013591613f75608060608401359301613f36565b90565b8054821015613f905760005260206000200190600090565b634e487b7160e01b600052603260045260246000fd5b91908260c091031261087d57813591602081013591604082013591606081013591613f7560a0613fd860808501613f36565b9301613f36565b919082608091031261087d578135916020810135916060604083013592013590565b919082608091031261087d57813591602081013591613f75606060408401359301613f36565b91908260c091031261087d57813591602081013591604082013591606081013591613f7560a060808401359301613f36565b919082608091031261087d57813591602081013591613f756060613fd860408501613f36565b8054821015613f905760005260206000209060011b0190600090565b90601f8019910116810190811067ffffffffffffffff8211176140bd57604052565b634e487b7160e01b600052604160045260246000fd5b67ffffffffffffffff81116140bd57601f01601f191660200190565b908160a091031261087d57803591602082013591604081013591613f756080613fd860608501613f36565b1561412157565b60405162461bcd60e51b815260206004820152602c60248201527f46756e6374696f6e206d7573742062652063616c6c6564207468726f7567682060448201526b19195b1959d85d1958d85b1b60a21b6064820152608490fd5b1561418257565b60405162461bcd60e51b815260206004820152602c60248201527f46756e6374696f6e206d7573742062652063616c6c6564207468726f7567682060448201526b6163746976652070726f787960a01b6064820152608490fd5b9060ff7f4910fdfa16fed3260ed0e7147f7cc6da11a60208b5b9406d12a635614ffd91435416600014614216575061421491506143ca565b565b6040516352d1902d60e01b8152602093919291906001600160a01b038316908581600481855afa6000918161439b575b506142a75760405162461bcd60e51b815260048101879052602e60248201527f45524331393637557067726164653a206e657720696d706c656d656e7461746960448201526d6f6e206973206e6f74205555505360901b6064820152608490fd5b9394937fc9f76b5ec45e5cdef99837d7b6d2467235c1df8933c8ca56df5c35afa2c7d44401614344576142d9836143ca565b7fbc7cd75a20ee27fd9adebab32041f755214dbc6bffa90cc0225b39da2e5c2d3b600080a28351159081159161433c575b5061431457505050565b6000806143399461432361446c565b9481519101845af46143336144c0565b916144f0565b50565b90503861430a565b60405162461bcd60e51b815260048101859052602960248201527f45524331393637557067726164653a20756e737570706f727465642070726f786044820152681a58589b195555525160ba1b6064820152608490fd5b90918782813d83116143c3575b6143b2818361409b565b810103126108f35750519038614246565b503d6143a8565b803b15614411577f360894a13ba1a3210667c828492db98dca3e2076cc3735a920a3ca505d382bbc80546001600160a01b0319166001600160a01b03909216919091179055565b60405162461bcd60e51b815260206004820152602d60248201527f455243313936373a206e657720696d706c656d656e746174696f6e206973206e60448201526c1bdd08184818dbdb9d1c9858dd609a1b6064820152608490fd5b61447660276140d3565b90614484604051928361409b565b60278252660819985a5b195960ca1b6040837f416464726573733a206c6f772d6c6576656c2064656c65676174652063616c6c60208201520152565b3d156144eb573d906144d1826140d3565b916144df604051938461409b565b82523d6000602084013e565b606090565b919290156145525750815115614504575090565b3b1561450d5790565b60405162461bcd60e51b815260206004820152601d60248201527f416464726573733a2063616c6c20746f206e6f6e2d636f6e74726163740000006044820152606490fd5b8251909150156145655750805190602001fd5b6040519062461bcd60e51b82528160208060048301528251908160248401526000935b8285106145ab575050604492506000838284010152601f80199101168101030190fd5b8481018201518686016044015293810193859350614588565b91908203918211610f5057565b610253546040516370a0823160e01b81526001600160a01b0392831660048201529160209183916024918391165afa90811561464057600091614612575090565b906020823d8211614638575b8161462b6020938361409b565b810103126108f357505190565b3d915061461e565b6040513d6000823e3d90fd5b91908201809211610f5057565b8051821015613f905760209160051b010190565b906000916000906101698054906000925b8284106146a457505050506146a0670de0b6b3a76400009161016b5490614778565b0490565b90919293956146eb6146e06146e5600193610d616146c28a88614659565b516146cd818c614711565b95906146d98d8c61407f565b505461464c565b6158a9565b9861464c565b940192919061467e565b91909160008382019384129112908015821691151617610f5057565b919060009061473f8160009561473561472c82610180613f78565b939054926147c4565b9160031b1c6146f5565b6000811361474e575b50509190565b61477091945061273b92508094670de0b6b3a764000093849161016c54614778565b043880614748565b81810292918115918404141715610f5057565b8115614795570490565b634e487b7160e01b600052601260045260246000fd5b81810392916000138015828513169184121617610f5057565b6147d08161016961407f565b505490670de0b6b3a764000091828102928184041490151715610f5057613f759261481061480361481693610181613f78565b90549060031b1c8461478b565b9261478b565b906147ab565b8015614832576146e0613f7592610163546145c4565b505060001990565b67ffffffffffffffff81116140bd5760051b60200190565b9061485c8261483a565b614869604051918261409b565b828152809261487a601f199161483a565b0190602036910137565b61016354801561433957610169908154916000906148a184614852565b9082905b85821061490b57505060005b8481106148bf575050505050565b6148d784610cff856148d18587614659565b51614778565b9061016a918254680100000000000000008110156140bd57612758816001958661490394018155613f78565b9055016148b1565b909261494760019161491c8661494f565b6149268787614659565b52610d61614934878661407f565b50546149408888614659565b51906158a9565b9301906148a5565b61495b9061016961407f565b50600101546001600160a01b0316614972816149a3565b9190911561497e575090565b60249060405190637f6e4db960e01b82526004820152fd5b5190811515820361087d57565b604080516359e02dd760e01b815292918190849060049082906001600160a01b03165afa928315614a1a5760009182946149dd5750509190565b90809450813d8311614a13575b6149f4818361409b565b810103126108f35750614a0b602083519301614996565b913880614748565b503d6149ea565b50513d6000823e3d90fd5b6101695490614a3382614852565b9160005b818110614a42575050565b80614a4e60019261494f565b614a588287614659565b5201614a37565b15614a6657565b60405162461bcd60e51b815260206004820152602b60248201527f496e697469616c697a61626c653a20636f6e7472616374206973206e6f74206960448201526a6e697469616c697a696e6760a81b6064820152608490fd5b60405190614ace60808361409b565b60006060838281528260208201528260408201520152565b959260c09592989794919860e08801998852602088015260408701526060860152608085015260a084015260018060a01b0316910152565b6040516323b872dd60e01b60208201526001600160a01b03928316602482015292909116604483015260648083019390935291815261421491614b6260848361409b565b602091614bc5916001600160a01b0316600080614b7e866140d3565b93614b8c604051958661409b565b8685527f5361666545524332303a206c6f772d6c6576656c2063616c6c206661696c656487860152868151910182855af16143336144c0565b8051828115918215614c35575b5050905015614bde5750565b6084906040519062461bcd60e51b82526004820152602a60248201527f5361666545524332303a204552433230206f7065726174696f6e20646964206e6044820152691bdd081cdd58d8d9595960b21b6064820152fd5b838092935001031261087d5781614c4c9101614996565b808238614bd2565b60ff61017d5460081c16614c6457565b604051631ca61d7760e01b8152600490fd5b614cdc92602092610166614c8b84825461464c565b9055614c9b61016391825461464c565b9055610165546040516340c10f1960e01b81526001600160a01b03928316600482015260248101939093529193849290911690829060009082906044820190565b03925af1801561464057614ced5750565b6020813d8211614d16575b81614d056020938361409b565b8101031261087d5761433990614996565b3d9150614cf8565b9190614d299061466d565b919092614d36838561481c565b9080821115614d43575050565b6044925060405191637912120160e01b835260048301526024820152fd5b9061016654908115614d8157613f759261133f6146e092610163546145c4565b505050670de0b6b3a764000090565b929093916000916000918296614da4614abf565b966001600160a01b03918590831680614fb0575b508261016154168360405193636eb1769f60e11b8552168060048501523060248501526020948585604481865afa948515614fa5578495614f76575b5084614e55575b505050505086015115614e11575b505050929190565b90919250614e29670de0b6b3a7640000928392614778565b04808552908215614e4d57614e4592049081604086015261464c565b388080614e09565b509050614e45565b614e639061016254166149a3565b92909215614dfb57909192939b50848b614e9d85670de0b6b3a7640000614e97614e8d8d8d614778565b6101755490614778565b0461478b565b81830181815295908b15614f6c5750614ec891614ebc6060928d61478b565b9182910152855161464c565b809d5b10928315614ef7575b505050614ee4575b808080614dfb565b8192995052806060880152963880614edc565b909192506024604051809481936370a0823160e01b835260048301525afa908115614f6157908b918491614f30575b5010388481614ed4565b809250858092503d8311614f5a575b614f49818361409b565b810103126135e0578a905138614f26565b503d614f3f565b6040513d85823e3d90fd5b915050809d614ecb565b9094508581813d8311614f9e575b614f8e818361409b565b810103126135c657519338614df4565b503d614f84565b6040513d86823e3d90fd5b9095506020836101ed5416916024604051809481936364a731e960e01b835260048301525afa8015615028578690614ff5575b614fee915084614778565b9438614db8565b506020813d8211615020575b8161500e6020938361409b565b81010312612b1f57614fee9051614fe3565b3d9150615001565b6040513d88823e3d90fd5b6150ab9361507260009260209561504c8261016961407f565b5061505887825461464c565b905561506861016391825461464c565b9055610167613f78565b90546040516340c10f1960e01b81526001600160a01b039093166004840152602483019490945290948593928492909183906044820190565b039360039190911b1c6001600160a01b03165af1801561464057614ced5750565b61275861511d916150dd84826147c4565b6151136150ec83610180613f78565b6150ff8294925492838360031b1c6146f5565b919060031b91821b91600019901b19161790565b9055610181613f78565b9055565b9183859161512f938561517c565b926000841292831561514c575b5050506151465790565b50600090565b61515792935061481c565b111538808061513c565b811561479557600160ff1b8114600019831416610f50570590565b9261518a92959491936151f9565b6000938181029190858212600160ff1b8214166151e557818305149015171561391757670de0b6b3a763ffff19820191821161391757670de0b6b3a76400009182810292818404149015171561391757613f75929350615161565b634e487b7160e01b86526011600452602486fd5b909161520890610163546145c4565b90670de0b6b3a764000091828102928184041490151715610f5057613f759261481691614778565b80910360e0811261087d578151926020830151926080604082015193605f19011261087d5760c06040519161526660808461409b565b606081015183526080810151602084015260a081015160408401520151606082015290565b90613f759160008061529b61446c565b93602081519101845af46143336144c0565b60c090805183526020810151602084015260408101516040840152606081015160608401528160018060a01b03918260808201511660808601528260a08201511660a0860152015116910152565b61012f600281541461530d5760029055565b60405162461bcd60e51b815260206004820152601f60248201527f5265656e7472616e637947756172643a207265656e7472616e742063616c6c006044820152606490fd5b908061535c575050565b6102535460405163a9059cbb60e01b60208201526001600160a01b0393841660248201526044808201939093529182526142149216614b6260648361409b565b9190816153a857505050565b6101615461421493906001600160a01b0316614b1e565b91906101666153cf8482546145c4565b90556153df6101639182546145c4565b9055610165546001600160a01b031691823b1561087d57604051632770a7eb60e21b81526001600160a01b0390921660048301526024820152906000908290818381604481015b03925af18015614640576154375750565b60006142149161409b565b61512f6154508484846151f9565b612d7c8585614d61565b61548891939261546c8261016961407f565b506154788682546145c4565b90556150686101639182546145c4565b905460039190911b1c6001600160a01b031691823b1561087d57604051632770a7eb60e21b81526001600160a01b039092166004830152602482015290600090829081838160448101615426565b615543916154e2615888565b6154ea6152fb565b6154f3306145d1565b60405163e01dce2d60e01b602082015260248101939093526001600160a01b0391821660448401528482166064840152608480840191909152825261553960a48361409b565b610220541661528b565b60208180518101031261087d57602061555f9101518092615352565b600161012f5590565b60e08101929160c09081906001600160a01b038061558583613f36565b16855261559460208301613f36565b16602085015260408101356040850152606081013560608501526080810135608085015260a081013560a08501520135910152565b61017f548043101561514657613f759043906145c4565b906040516155ef60408261409b565b602060018294805484520154910152565b61560c8161017a613f78565b90549060031b1c916101b891615622818461407f565b5054926101b95443101561564d575b50508082101561564857610cff90613f7593614778565b505090565b82935061566161566c93926156679261407f565b506155e0565b615674565b903880615631565b602081519101805192670de0b6b3a764000093840390848211610f50576156a1610d61926146a095614778565b9251614778565b600080610169918254926156bb84614852565b9382915b8183106156e85750505081156156dc57906156d99161478b565b91565b505061017b5460011b91565b909193926156f58561494f565b90816157018789614659565b5261571a61570f8388614711565b506146d9888661407f565b670de0b6b3a764000090818102918183041490151715610f505761575761575d92610d618561574e600197611bcd966158a9565b9485918c615600565b9561464c565b940191906156bf565b6101b980544310156157755750565b6101695460005b81811061578f5750506101ba5443019055565b80807f19156e9379c7bbbce8f646ce5ee30ba860b8f954717405f3d5859a6c1a21ae606001936101b86157c5615661838361407f565b906157e36157db6157d58561494f565b84615674565b93849261407f565b50555160409182519182526020820152a20161577c565b60975460405163d994d6d560e01b815233600482015290602090829060249082906001600160a01b03165afa9081156146405760009161584f575b501561583d57565b604051631dd1b1b560e21b8152600490fd5b906020823d8211615880575b816158686020938361409b565b810103126108f3575061587a90614996565b38615835565b3d915061585b565b60ff60ca5460081c1661589757565b60405163783bb6c960e11b8152600490fd5b90670de0b6b3a764000091828102928184041490151715610f5057613f759161478b565b670de0b6b3a7640000106135ca5756fea264697066735822122091d61252ae9ace5ffcb782ef74375ef7bbf396a1143891afc5a9ee418e492ee864736f6c63430008120033",
  "devdoc": {
    "events": {
      "AdminChanged(address,address)": {
        "details": "Emitted when the admin account has changed."
      },
      "BeaconUpgraded(address)": {
        "details": "Emitted when the beacon is changed."
      },
      "Initialized(uint8)": {
        "details": "Triggered when the contract has been initialized or reinitialized."
      },
      "Upgraded(address)": {
        "details": "Emitted when the implementation is upgraded."
      }
    },
    "kind": "dev",
    "methods": {
      "addPeggedToken((address,address,uint256,uint256,uint256,uint256,uint256))": {
        "details": "Note that the ema value, should consider `nextEmaCalculation`  This function is implemented in MocCoreExpansion but with this contract contexttpTokenAddress Pegged Token contract address to add      priceProviderAddress Pegged Token price provider contract address      tpCtarg Pegged Token target coverage [PREC]      tpMintFee additional fee pct applied on mint [PREC]      tpRedeemFee additional fee pct applied on redeem [PREC]      tpEma initial Pegged Token exponential moving average [PREC]      tpEmaSf Pegged Token smoothing factor [PREC]  Requirements: - the caller must have governance authorization. - tpTokenAddress must be a MocRC20, with mint, burn roles already settled  for this contract",
        "params": {
          "peggedTokenParams_": "params of Pegged Token to add"
        }
      },
      "calcCtargemaCA()": {
        "details": "qAC = nTP / pACtp      ctargemaCA = (ctargemaTP * qAC) / (qAC)",
        "returns": {
          "ctargemaCA": "[PREC]"
        }
      },
      "changeGovernor(address)": {
        "params": {
          "newGovernor_": "New governor address"
        }
      },
      "constructor": {
        "custom:oz-upgrades-unsafe-allow": "constructor"
      },
      "editPeggedToken((address,address,uint256,uint256,uint256,uint256,uint256))": {
        "details": "Note that the ema value, should consider `nextEmaCalculation`  This function is implemented in MocCoreExpansion but with this contract contexttpTokenAddress Pegged Token contract address to identify the token to edit      priceProviderAddress Pegged Token price provider contract address      tpCtarg Pegged Token target coverage [PREC]      tpMintFee additional fee pct applied on mint [PREC]      tpRedeemFee additional fee pct applied on redeem [PREC]      tpEma initial Pegged Token exponential moving average [PREC]      tpEmaSf Pegged Token smoothing factor [PREC]  Requirements: - the caller must have governance authorization. - the tpTokenAddress must exists",
        "params": {
          "peggedTokenParams_": "params of Pegged Token to add"
        }
      },
      "getCglb()": {
        "returns": {
          "cglob": "[PREC]"
        }
      },
      "getLckAC()": {
        "returns": {
          "lckAC": "[PREC]"
        }
      },
      "getLeverageTC()": {
        "returns": {
          "leverageTC": "[PREC]"
        }
      },
      "getPACtp(uint256)": {
        "params": {
          "i_": "Pegged Token index"
        },
        "returns": {
          "_0": "price [PREC]"
        }
      },
      "getPTCac()": {
        "returns": {
          "pTCac": "[PREC]"
        }
      },
      "getTCAvailableToRedeem()": {
        "details": "because it is a view function we are not calculating the new ema,  since we are using the last ema calculation, this may differ a little from the real amount  of TC available to redeem. Consider it an approximation.",
        "returns": {
          "tcAvailableToRedeem": "[N]"
        }
      },
      "getTPAvailableToMint(uint256)": {
        "details": "because it is a view function we are not calculating the new ema,  since we are using the last ema calculation, this may differ a little from the real amount  of TP available to mint. Consider it an approximation.",
        "params": {
          "i_": "Pegged Token index"
        },
        "returns": {
          "tpAvailableToMint": "[N]"
        }
      },
      "getTotalACavailable()": {
        "returns": {
          "totalACavailable": "[N]"
        }
      },
      "initialize((((address,address,address,address,address,uint256,uint256,uint256,uint256,uint256,uint256,uint256,uint256,uint256,uint256,uint256,uint256,uint256,uint256,address,uint256,uint256),address,address,address,uint256,address),address))": {
        "details": "governorAddress The address that will define when a change contract is authorized      pauserAddress The address that is authorized to pause this contract      acTokenAddress Collateral Asset Token contract address      tcTokenAddress Collateral Token contract address      mocFeeFlowAddress Moc Fee Flow contract address      mocAppreciationBeneficiaryAddress Moc appreciation beneficiary address      protThrld protected state threshold [PREC]      liqThrld liquidation coverage threshold [PREC]      feeRetainer pct retain on fees to be re-injected as Collateral, while paying fees with AC [PREC]      tcMintFee additional fee pct applied on mint Collateral Tokens operations [PREC]      tcRedeemFee additional fee pct applied on redeem Collateral Tokens operations [PREC]      successFee pct of the gain because Pegged Tokens devaluation that is transferred        in Collateral Asset to Moc Fee Flow during the settlement [PREC]      appreciationFactor pct of the gain because Pegged Tokens devaluation that is returned        in Pegged Tokens to appreciation beneficiary during the settlement [PREC]      bes number of blocks between settlements      tcInterestCollectorAddress TC interest collector address      tcInterestRate pct interest charged to TC holders on the total collateral in the protocol [PREC]      tcInterestPaymentBlockSpan amount of blocks to wait for next TC interest payment      emaCalculationBlockSpan amount of blocks to wait between Pegged ema calculation      mocVendors address for MocVendors contract",
        "params": {
          "initializeParams_": "contract initializer params"
        }
      },
      "isLiquidationReached()": {
        "returns": {
          "_0": "true if liquidation state is reached, false otherwise"
        }
      },
      "liqRedeemTP(uint256)": {
        "params": {
          "i_": "Pegged Token index"
        },
        "returns": {
          "qACRedeemed": "amount of AC sent to sender"
        }
      },
      "liqRedeemTPto(uint256,address)": {
        "params": {
          "i_": "Pegged Token index",
          "recipient_": "address who receives the AC"
        },
        "returns": {
          "qACRedeemed": "amount of AC sent to `recipient_`"
        }
      },
      "makeStoppable()": {
        "details": "Should be called through governance"
      },
      "makeUnstoppable()": {
        "details": "Should be called through governance"
      },
      "mintTC(uint256,uint256)": {
        "params": {
          "qACmax_": "maximum amount of Collateral Asset that can be spent",
          "qTC_": "amount of Collateral Token to mint"
        },
        "returns": {
          "qACtotalNeeded": "amount of AC used to mint qTC",
          "qFeeToken": "amount of Fee Token used by sender to pay fees. 0 if qAC is used instead"
        }
      },
      "mintTCViaVendor(uint256,uint256,address)": {
        "params": {
          "qACmax_": "maximum amount of Collateral Asset that can be spent",
          "qTC_": "amount of Collateral Token to mint",
          "vendor_": "address who receives a markup"
        },
        "returns": {
          "qACtotalNeeded": "amount of AC used to mint qTC",
          "qFeeToken": "amount of Fee Token used by sender to pay fees. 0 if qAC is used instead"
        }
      },
      "mintTCandTP(uint256,uint256,uint256)": {
        "params": {
          "i_": "Pegged Token index",
          "qACmax_": "maximum amount of Collateral Asset that can be spent",
          "qTP_": "amount of Pegged Token to mint"
        },
        "returns": {
          "qACtotalNeeded": "amount of AC used to mint Collateral Token and Pegged Token",
          "qFeeToken": "amount of Fee Token used by sender to pay fees. 0 if qAC is used instead",
          "qTCtoMint": "amount of Collateral Token minted"
        }
      },
      "mintTCandTPViaVendor(uint256,uint256,uint256,address)": {
        "params": {
          "i_": "Pegged Token index",
          "qACmax_": "maximum amount of Collateral Asset that can be spent",
          "qTP_": "amount of Pegged Token to mint",
          "vendor_": "address who receives a markup"
        },
        "returns": {
          "qACtotalNeeded": "amount of AC used to mint Collateral Token and Pegged Token",
          "qFeeToken": "amount of Fee Token used by sender to pay fees. 0 if qAC is used instead",
          "qTCtoMint": "amount of Collateral Token minted"
        }
      },
      "mintTCandTPto(uint256,uint256,uint256,address)": {
        "params": {
          "i_": "Pegged Token index",
          "qACmax_": "maximum amount of Collateral Asset that can be spent",
          "qTP_": "amount of Pegged Token to mint",
          "recipient_": "address who receives the Collateral Token and Pegged Token"
        },
        "returns": {
          "qACtotalNeeded": "amount of AC used to mint Collateral Token and Pegged Token",
          "qFeeToken": "amount of Fee Token used by sender to pay fees. 0 if qAC is used instead",
          "qTCtoMint": "amount of Collateral Token minted"
        }
      },
      "mintTCandTPtoViaVendor(uint256,uint256,uint256,address,address)": {
        "params": {
          "i_": "Pegged Token index",
          "qACmax_": "maximum amount of Collateral Asset that can be spent",
          "qTP_": "amount of Pegged Token to mint",
          "recipient_": "address who receives the Collateral Token and Pegged Token",
          "vendor_": "address who receives a markup"
        },
        "returns": {
          "qACtotalNeeded": "amount of AC used to mint Collateral Token and Pegged Token",
          "qFeeToken": "amount of Fee Token used by sender to pay fees. 0 if qAC is used instead",
          "qTCtoMint": "amount of Collateral Token minted"
        }
      },
      "mintTCto(uint256,uint256,address)": {
        "params": {
          "qACmax_": "maximum amount of Collateral Asset that can be spent",
          "qTC_": "amount of Collateral Token to mint",
          "recipient_": "address who receives the Collateral Token"
        },
        "returns": {
          "qACtotalNeeded": "amount of AC used to mint qTC",
          "qFeeToken": "amount of Fee Token used by sender to pay fees. 0 if qAC is used instead"
        }
      },
      "mintTCtoViaVendor(uint256,uint256,address,address)": {
        "params": {
          "qACmax_": "maximum amount of Collateral Asset that can be spent",
          "qTC_": "amount of Collateral Token to mint",
          "recipient_": "address who receives the Collateral Token",
          "vendor_": "address who receives a markup"
        },
        "returns": {
          "qACtotalNeeded": "amount of AC used to mint qTC",
          "qFeeToken": "amount of Fee Token used by sender to pay fees. 0 if qAC is used instead"
        }
      },
      "mintTP(uint256,uint256,uint256)": {
        "params": {
          "i_": "Pegged Token index to mint",
          "qACmax_": "maximum amount of Collateral Asset that can be spent",
          "qTP_": "amount of Pegged Token to mint"
        },
        "returns": {
          "qACtotalNeeded": "amount of AC used to mint qTP",
          "qFeeToken": "amount of Fee Token used by sender to pay fees. 0 if qAC is used instead"
        }
      },
      "mintTPViaVendor(uint256,uint256,uint256,address)": {
        "params": {
          "i_": "Pegged Token index to mint",
          "qACmax_": "maximum amount of Collateral Asset that can be spent",
          "qTP_": "amount of Pegged Token to mint",
          "vendor_": "address who receives a markup"
        },
        "returns": {
          "qACtotalNeeded": "amount of AC used to mint qTP",
          "qFeeToken": "amount of Fee Token used by sender to pay fees. 0 if qAC is used instead"
        }
      },
      "mintTPto(uint256,uint256,uint256,address)": {
        "params": {
          "i_": "Pegged Token index to mint",
          "qACmax_": "maximum amount of Collateral Asset that can be spent",
          "qTP_": "amount of Pegged Token to mint",
          "recipient_": "address who receives the Pegged Token"
        },
        "returns": {
          "qACtotalNeeded": "amount of AC used to mint qTP",
          "qFeeToken": "amount of Fee Token used by sender to pay fees. 0 if qAC is used instead"
        }
      },
      "mintTPtoViaVendor(uint256,uint256,uint256,address,address)": {
        "params": {
          "i_": "Pegged Token index to mint",
          "qACmax_": "maximum amount of Collateral Asset that can be spent",
          "qTP_": "amount of Pegged Token to mint",
          "recipient_": "address who receives the Pegged Token",
          "vendor_": "address who receives a markup"
        },
        "returns": {
          "qACtotalNeeded": "amount of AC used to mint qTP",
          "qFeeToken": "amount of Fee Token used by sender to pay fees. 0 if qAC is used instead"
        }
      },
      "pause()": {
        "details": "Should only be called by the pauser and when it is stoppable"
      },
      "proxiableUUID()": {
        "details": "Implementation of the ERC1822 {proxiableUUID} function. This returns the storage slot used by the implementation. It is used to validate the implementation's compatibility when performing an upgrade. IMPORTANT: A proxy pointing at a proxiable contract should not be considered proxiable itself, because this risks bricking a proxy that upgrades to it, by delegating to itself until out of gas. Thus it is critical that this function revert if invoked through a proxy. This is guaranteed by the `notDelegated` modifier."
      },
      "redeemTC(uint256,uint256)": {
        "params": {
          "qACmin_": "minimum amount of Collateral Asset that sender expects to receive",
          "qTC_": "amount of Collateral Token to redeem"
        },
        "returns": {
          "qACRedeemed": "amount of AC sent to sender",
          "qFeeToken": "amount of Fee Token used by sender to pay fees. 0 if qAC is used instead"
        }
      },
      "redeemTCViaVendor(uint256,uint256,address)": {
        "params": {
          "qACmin_": "minimum amount of Collateral Asset that sender expects to receive",
          "qTC_": "amount of Collateral Token to redeem",
          "vendor_": "address who receives a markup"
        },
        "returns": {
          "qACRedeemed": "amount of AC sent to sender",
          "qFeeToken": "amount of Fee Token used by sender to pay fees. 0 if qAC is used instead"
        }
      },
      "redeemTCandTP(uint256,uint256,uint256,uint256)": {
        "params": {
          "i_": "Pegged Token index",
          "qACmin_": "minimum amount of Collateral Asset that the sender expects to receive",
          "qTC_": "maximum amount of Collateral Token to redeem",
          "qTP_": "maximum amount of Pegged Token to redeem"
        },
        "returns": {
          "qACRedeemed": "amount of AC sent to the sender",
          "qFeeToken": "amount of Fee Token used by sender to pay fees. 0 if qAC is used instead",
          "qTPRedeemed": "amount of Pegged Token redeemed"
        }
      },
      "redeemTCandTPViaVendor(uint256,uint256,uint256,uint256,address)": {
        "params": {
          "i_": "Pegged Token index",
          "qACmin_": "minimum amount of Collateral Asset that the sender expects to receive",
          "qTC_": "maximum amount of Collateral Token to redeem",
          "qTP_": "maximum amount of Pegged Token to redeem",
          "vendor_": "address who receives a markup"
        },
        "returns": {
          "qACRedeemed": "amount of AC sent to the sender",
          "qFeeToken": "amount of Fee Token used by sender to pay fees. 0 if qAC is used instead",
          "qTPRedeemed": "amount of Pegged Token redeemed"
        }
      },
      "redeemTCandTPto(uint256,uint256,uint256,uint256,address)": {
        "params": {
          "i_": "Pegged Token index",
          "qACmin_": "minimum amount of Collateral Asset that `recipient_` expects to receive",
          "qTC_": "maximum amount of Collateral Token to redeem",
          "qTP_": "maximum amount of Pegged Token to redeem",
          "recipient_": "address who receives the Collateral Asset"
        },
        "returns": {
          "qACRedeemed": "amount of AC sent to the `recipient_`",
          "qFeeToken": "amount of Fee Token used by sender to pay fees. 0 if qAC is used instead",
          "qTPRedeemed": "amount of Pegged Token redeemed"
        }
      },
      "redeemTCandTPtoViaVendor(uint256,uint256,uint256,uint256,address,address)": {
        "params": {
          "i_": "Pegged Token index",
          "qACmin_": "minimum amount of Collateral Asset that `recipient_` expects to receive",
          "qTC_": "maximum amount of Collateral Token to redeem",
          "qTP_": "maximum amount of Pegged Token to redeem",
          "recipient_": "address who receives the Collateral Asset",
          "vendor_": "address who receives a markup"
        },
        "returns": {
          "qACRedeemed": "amount of AC sent to the `recipient_`",
          "qFeeToken": "amount of Fee Token used by sender to pay fees. 0 if qAC is used instead",
          "qTPRedeemed": "amount of Pegged Token redeemed"
        }
      },
      "redeemTCto(uint256,uint256,address)": {
        "params": {
          "qACmin_": "minimum amount of Collateral Asset that `recipient_` expects to receive",
          "qTC_": "amount of Collateral Token to redeem",
          "recipient_": "address who receives the Collateral Asset"
        },
        "returns": {
          "qACRedeemed": "amount of AC sent to 'recipient_'",
          "qFeeToken": "amount of Fee Token used by sender to pay fees. 0 if qAC is used instead"
        }
      },
      "redeemTCtoViaVendor(uint256,uint256,address,address)": {
        "params": {
          "qACmin_": "minimum amount of Collateral Asset that `recipient_` expects to receive",
          "qTC_": "amount of Collateral Token to redeem",
          "recipient_": "address who receives the Collateral Asset",
          "vendor_": "address who receives a markup"
        },
        "returns": {
          "qACRedeemed": "amount of AC sent to 'recipient_'",
          "qFeeToken": "amount of Fee Token used by sender to pay fees. 0 if qAC is used instead"
        }
      },
      "redeemTP(uint256,uint256,uint256)": {
        "params": {
          "i_": "Pegged Token index to redeem",
          "qACmin_": "minimum amount of Collateral Asset that sender expects to receive",
          "qTP_": "amount of Pegged Token to redeem"
        },
        "returns": {
          "qACRedeemed": "amount of AC sent to sender",
          "qFeeToken": "amount of Fee Token used by sender to pay fees. 0 if qAC is used instead"
        }
      },
      "redeemTPViaVendor(uint256,uint256,uint256,address)": {
        "params": {
          "i_": "Pegged Token index to redeem",
          "qACmin_": "minimum amount of Collateral Asset that sender expects to receive",
          "qTP_": "amount of Pegged Token to redeem",
          "vendor_": "address who receives a markup"
        },
        "returns": {
          "qACRedeemed": "amount of AC sent to sender",
          "qFeeToken": "amount of Fee Token used by sender to pay fees. 0 if qAC is used instead"
        }
      },
      "redeemTPto(uint256,uint256,uint256,address)": {
        "params": {
          "i_": "Pegged Token index to redeem",
          "qACmin_": "minimum amount of Collateral Asset that `recipient_` expects to receive",
          "qTP_": "amount of Pegged Token to redeem",
          "recipient_": "address who receives the Collateral Asset"
        },
        "returns": {
          "qACRedeemed": "amount of AC sent to 'recipient_'",
          "qFeeToken": "amount of Fee Token used by sender to pay fees. 0 if qAC is used instead"
        }
      },
      "redeemTPtoViaVendor(uint256,uint256,uint256,address,address)": {
        "params": {
          "i_": "Pegged Token index to redeem",
          "qACmin_": "minimum amount of Collateral Asset that `recipient_` expects to receive",
          "qTP_": "amount of Pegged Token to redeem",
          "recipient_": "address who receives the Collateral Asset",
          "vendor_": "address who receives a markup"
        },
        "returns": {
          "qACRedeemed": "amount of AC sent to 'recipient_'",
          "qFeeToken": "amount of Fee Token used by sender to pay fees. 0 if qAC is used instead"
        }
      },
      "refreshACBalance()": {
        "details": "Intended to be use as notification after an RC20 AC transfer to this contract"
      },
      "setAppreciationFactor(uint256)": {
        "details": "sets appreciation Factor value.",
        "params": {
          "appreciationFactor_": "pct of the gain because Pegged Tokens devaluation that is returned in Pegged Tokens to appreciation beneficiary during the settlement [PREC]"
        }
      },
      "setBes(uint256)": {
        "details": "bns is not automatically updated, you have to wait until next settlement to be made : bns = block.number + bes*",
        "params": {
          "bes_": "number of blocks between settlements"
        }
      },
      "setEmaCalculationBlockSpan(uint256)": {
        "details": "nextEmaCalculation is not automatically updated, you have to wait until next  EMA calculation to be made : nextEmaCalculation = block.number + emaCalculationBlockSpan*",
        "params": {
          "blockSpan_": "Defines how many blocks should pass between EMA calculations"
        }
      },
      "setFeeRetainer(uint256)": {
        "details": "sets the fee pct to be retainer on AC fees payments as AC re-injection.",
        "params": {
          "feeRetainer_": "pct retain on fees to be re-injected as Collateral, while paying fees with AC [PREC] 0% = 0; 1% = 10 ** 16; 100% = 10 ** 18"
        }
      },
      "setFeeTokenAddress(address)": {
        "details": "sets Fee Token contract address",
        "params": {
          "mocFeeTokenAddress_": "Fee Token new contract address"
        }
      },
      "setFeeTokenPct(uint256)": {
        "details": "sets the fee applied on the top of the operation`s fee when using Fee Token as fee payment method.",
        "params": {
          "feeTokenPct_": "pct applied on the top of the operation`s fee when using Fee Token  as fee payment method [PREC]  e.g. if tcMintFee = 1%, FeeTokenPct = 50% => qFeeToken = 0.5%  0% = 0; 1% = 10 ** 16; 100% = 10 ** 18"
        }
      },
      "setFeeTokenPriceProviderAddress(address)": {
        "details": "sets Fee Token price provider contract address",
        "params": {
          "mocFeeTokenPriceProviderAddress_": "Fee Token price provider new contract address"
        }
      },
      "setLiqEnabled(bool)": {
        "details": "enables and disables the liquidation mechanism.",
        "params": {
          "liqEnabled_": "is liquidation enabled"
        }
      },
      "setLiqThrld(uint256)": {
        "details": "sets the value of the liq threshold configuration param",
        "params": {
          "liqThrld_": "liquidation threshold"
        }
      },
      "setMintTCandTPFee(uint256)": {
        "details": "sets the fee charged when mint Collateral Token and Pegged Token in one operation.",
        "params": {
          "mintTCandTPFee_": "additional fee pct applied on mint Collateral Token and Pegged Token [PREC] 0% = 0; 1% = 10 ** 16; 100% = 10 ** 18"
        }
      },
      "setMocAppreciationBeneficiaryAddress(address)": {
        "details": "sets Moc Appreciation Beneficiary Address",
        "params": {
          "mocAppreciationBeneficiaryAddress_": "moc Appreciation Beneficiary new address"
        }
      },
      "setMocCoreExpansion(address)": {
        "details": "sets Moc Core Expansion contract address",
        "params": {
          "mocCoreExpansion_": "moc core expansion new contract address"
        }
      },
      "setMocFeeFlowAddress(address)": {
        "details": "sets Moc Fee Flow contract address",
        "params": {
          "mocFeeFlowAddress_": "moc Fee Flow new contract address"
        }
      },
      "setMocVendors(address)": {
        "details": "sets Moc Vendors contract address",
        "params": {
          "mocVendors_": "moc Vendors new contract address"
        }
      },
      "setPauser(address)": {
        "details": "Should be called through governance",
        "params": {
          "newPauser_": "Address of the new pauser"
        }
      },
      "setProtThrld(uint256)": {
        "details": "sets the value of the protected threshold configuration param",
        "params": {
          "protThrld_": "coverage protected state threshold [PREC]"
        }
      },
      "setRedeemTCandTPFee(uint256)": {
        "details": "sets the fee charged when redeem Collateral Token and Pegged Token in one operation.",
        "params": {
          "redeemTCandTPFee_": "additional fee pct applied on redeem Collateral Token and Pegged Token [PREC] 0% = 0; 1% = 10 ** 16; 100% = 10 ** 18"
        }
      },
      "setSuccessFee(uint256)": {
        "details": "sets success Fee value.",
        "params": {
          "successFee_": "pct of the gain because Pegged Tokens devaluation that is transferred in Collateral Asset to Moc Fee Flow during the settlement [PREC]"
        }
      },
      "setSwapTCforTPFee(uint256)": {
        "details": "sets the fee charged when swap Collateral Token for a Pegged Token.",
        "params": {
          "swapTCforTPFee_": "additional fee pct applied on swap Collateral Token for a Pegged Token [PREC] 0% = 0; 1% = 10 ** 16; 100% = 10 ** 18"
        }
      },
      "setSwapTPforTCFee(uint256)": {
        "details": "sets the fee charged when swap a Pegged Token for Collateral Token.",
        "params": {
          "swapTPforTCFee_": "additional fee pct applied on swap a Pegged Token for Collateral Token [PREC] 0% = 0; 1% = 10 ** 16; 100% = 10 ** 18"
        }
      },
      "setSwapTPforTPFee(uint256)": {
        "details": "sets the fee charged when swap a Pegged Token for another Pegged Token.",
        "params": {
          "swapTPforTPFee_": "additional fee pct applied on swap a Pegged Token for another Pegged Token [PREC] 0% = 0; 1% = 10 ** 16; 100% = 10 ** 18"
        }
      },
      "setTCInterestCollectorAddress(address)": {
        "details": "sets TC interest collector address",
        "params": {
          "tcInterestCollectorAddress_": "TC interest collector address"
        }
      },
      "setTCInterestPaymentBlockSpan(uint256)": {
        "details": "sets TC interest payment block spannextTCInterestPayment is not automatically updated, you have to wait until next  interest payment to be made : nextTCInterestPayment = block.number + tcInterestPaymentBlockSpan",
        "params": {
          "tcInterestPaymentBlockSpan_": "amount of blocks to wait for next TC interest payment"
        }
      },
      "setTCInterestRate(uint256)": {
        "details": "sets TC interest rate",
        "params": {
          "tcInterestRate_": "pct interest charged to TC holders on the total collateral in the protocol [PREC]"
        }
      },
      "setTcMintFee(uint256)": {
        "details": "sets the fee charged on Token Collateral mint.",
        "params": {
          "tcMintFee_": "addition fee pct applied on Collateral Tokens mint [PREC] 0% = 0; 1% = 10 ** 16; 100% = 10 ** 18"
        }
      },
      "setTcRedeemFee(uint256)": {
        "details": "sets the fee charged on Token Collateral redeem.",
        "params": {
          "tcRedeemFee_": "addition fee pct applied on Collateral Tokens redeem [PREC] 0% = 0; 1% = 10 ** 16; 100% = 10 ** 18"
        }
      },
      "swapTCforTP(uint256,uint256,uint256,uint256)": {
        "params": {
          "i_": "Pegged Token index",
          "qACmax_": "maximum amount of Collateral Asset that can be spent in fees",
          "qTC_": "amount of Collateral Token to swap",
          "qTPmin_": "minimum amount of Pegged Token that the sender expects to receive"
        },
        "returns": {
          "qACFee": "amount of AC used to pay fee",
          "qFeeToken": "amount of Fee Token used by sender to pay fees. 0 if qAC is used instead",
          "qTPMinted": "amount of Pegged Token minted"
        }
      },
      "swapTCforTPViaVendor(uint256,uint256,uint256,uint256,address)": {
        "params": {
          "i_": "Pegged Token index",
          "qACmax_": "maximum amount of Collateral Asset that can be spent in fees",
          "qTC_": "amount of Collateral Token to swap",
          "qTPmin_": "minimum amount of Pegged Token that the sender expects to receive",
          "vendor_": "address who receives a markup"
        },
        "returns": {
          "qACFee": "amount of AC used to pay fee",
          "qFeeToken": "amount of Fee Token used by sender to pay fees. 0 if qAC is used instead",
          "qTPMinted": "amount of Pegged Token minted"
        }
      },
      "swapTCforTPto(uint256,uint256,uint256,uint256,address)": {
        "params": {
          "i_": "Pegged Token index",
          "qACmax_": "maximum amount of Collateral Asset that can be spent in fees",
          "qTC_": "amount of Collateral Token to swap",
          "qTPmin_": "minimum amount of Pegged Token that `recipient_` expects to receive",
          "recipient_": "address who receives the Pegged Token"
        },
        "returns": {
          "qACFee": "amount of AC used to pay fee",
          "qFeeToken": "amount of Fee Token used by sender to pay fees. 0 if qAC is used instead",
          "qTPMinted": "amount of Pegged Token minted"
        }
      },
      "swapTCforTPtoViaVendor(uint256,uint256,uint256,uint256,address,address)": {
        "params": {
          "i_": "Pegged Token index",
          "qACmax_": "maximum amount of Collateral Asset that can be spent in fees",
          "qTC_": "amount of Collateral Token to swap",
          "qTPmin_": "minimum amount of Pegged Token that `recipient_` expects to receive",
          "recipient_": "address who receives the Pegged Token",
          "vendor_": "address who receives a markup"
        },
        "returns": {
          "qACFee": "amount of AC used to pay fee",
          "qFeeToken": "amount of Fee Token used by sender to pay fees. 0 if qAC is used instead",
          "qTPMinted": "amount of Pegged Token minted"
        }
      },
      "swapTPforTC(uint256,uint256,uint256,uint256)": {
        "params": {
          "i_": "Pegged Token index",
          "qACmax_": "maximum amount of Collateral Asset that can be spent in fees",
          "qTCmin_": "minimum amount of Collateral Token that the sender expects to receive",
          "qTP_": "amount of owned Pegged Token to swap"
        },
        "returns": {
          "qACFee": "amount of AC used to pay fee",
          "qFeeToken": "amount of Fee Token used by sender to pay fees. 0 if qAC is used instead",
          "qTPMinted": "amount of Collateral Token minted"
        }
      },
      "swapTPforTCViaVendor(uint256,uint256,uint256,uint256,address)": {
        "params": {
          "i_": "Pegged Token index",
          "qACmax_": "maximum amount of Collateral Asset that can be spent in fees",
          "qTCmin_": "minimum amount of Collateral Token that the sender expects to receive",
          "qTP_": "amount of owned Pegged Token to swap",
          "vendor_": "address who receives a markup"
        },
        "returns": {
          "qACFee": "amount of AC used to pay fee",
          "qFeeToken": "amount of Fee Token used by sender to pay fees. 0 if qAC is used instead",
          "qTPMinted": "amount of Collateral Token minted"
        }
      },
      "swapTPforTCto(uint256,uint256,uint256,uint256,address)": {
        "params": {
          "i_": "Pegged Token index",
          "qACmax_": "maximum amount of Collateral Asset that can be spent in fees",
          "qTCmin_": "minimum amount of Collateral Token that `recipient_` expects to receive",
          "qTP_": "amount of owned Pegged Token to swap",
          "recipient_": "address who receives the Collateral Token"
        },
        "returns": {
          "qACFee": "amount of AC used to pay fee",
          "qFeeToken": "amount of Fee Token used by sender to pay fees. 0 if qAC is used instead",
          "qTPMinted": "amount of Collateral Token minted"
        }
      },
      "swapTPforTCtoViaVendor(uint256,uint256,uint256,uint256,address,address)": {
        "params": {
          "i_": "Pegged Token index",
          "qACmax_": "maximum amount of Collateral Asset that can be spent in fees",
          "qTCmin_": "minimum amount of Collateral Token that `recipient_` expects to receive",
          "qTP_": "amount of owned Pegged Token to swap",
          "recipient_": "address who receives the Collateral Token",
          "vendor_": "address who receives a markup"
        },
        "returns": {
          "qACFee": "amount of AC used to pay fee",
          "qFeeToken": "amount of Fee Token used by sender to pay fees. 0 if qAC is used instead",
          "qTPMinted": "amount of Collateral Token minted"
        }
      },
      "swapTPforTP(uint256,uint256,uint256,uint256,uint256)": {
        "params": {
          "iFrom_": "owned Pegged Token index",
          "iTo_": "target Pegged Token index",
          "qACmax_": "maximum amount of Collateral Asset that can be spent in fees",
          "qTP_": "amount of owned Pegged Token to swap",
          "qTPmin_": "minimum amount of target Pegged Token that the sender expects to receive"
        },
        "returns": {
          "qACFee": "amount of AC used to pay fee",
          "qFeeToken": "amount of Fee Token used by sender to pay fees. 0 if qAC is used instead",
          "qTPMinted": "amount of Pegged Token minted"
        }
      },
      "swapTPforTPViaVendor(uint256,uint256,uint256,uint256,uint256,address)": {
        "params": {
          "iFrom_": "owned Pegged Token index",
          "iTo_": "target Pegged Token index",
          "qACmax_": "maximum amount of Collateral Asset that can be spent in fees",
          "qTP_": "amount of owned Pegged Token to swap",
          "qTPmin_": "minimum amount of target Pegged Token that the sender expects to receive",
          "vendor_": "address who receives a markup"
        },
        "returns": {
          "qACFee": "amount of AC used to pay fee",
          "qFeeToken": "amount of Fee Token used by sender to pay fees. 0 if qAC is used instead",
          "qTPMinted": "amount of Pegged Token minted"
        }
      },
      "swapTPforTPto(uint256,uint256,uint256,uint256,uint256,address)": {
        "params": {
          "iFrom_": "owned Pegged Token index",
          "iTo_": "target Pegged Token index",
          "qACmax_": "maximum amount of Collateral Asset that can be spent in fees",
          "qTP_": "amount of owned Pegged Token to swap",
          "qTPmin_": "minimum amount of target Pegged Token that `recipient_` expects to receive",
          "recipient_": "address who receives the target Pegged Token"
        },
        "returns": {
          "qACFee": "amount of AC used to pay fee",
          "qFeeToken": "amount of Fee Token used by sender to pay fees. 0 if qAC is used instead",
          "qTPMinted": "amount of Pegged Token minted"
        }
      },
      "swapTPforTPtoViaVendor(uint256,uint256,uint256,uint256,uint256,address,address)": {
        "params": {
          "iFrom_": "owned Pegged Token index",
          "iTo_": "target Pegged Token index",
          "qACmax_": "maximum amount of Collateral Asset that can be spent in fees",
          "qTP_": "amount of owned Pegged Token to swap",
          "qTPmin_": "minimum amount of target Pegged Token that `recipient_` expects to receive",
          "recipient_": "address who receives the target Pegged Token",
          "vendor_": "address who receives a markup"
        },
        "returns": {
          "qACFee": "amount of AC used to pay fee",
          "qFeeToken": "amount of Fee Token used by sender to pay fees. 0 if qAC is used instead",
          "qTPMinted": "amount of Pegged Token minted"
        }
      },
      "tcHoldersInterestPayment()": {
        "details": "-   The amount is not differential, it's a snapshot of the moment it's executed  -   It does not check coverage"
      },
      "updateEmas()": {
        "details": "All price provider prices must be available, fails if not"
      },
      "upgradeTo(address)": {
        "custom:oz-upgrades-unsafe-allow-reachable": "delegatecall",
        "details": "Upgrade the implementation of the proxy to `newImplementation`. Calls {_authorizeUpgrade}. Emits an {Upgraded} event."
      },
      "upgradeToAndCall(address,bytes)": {
        "custom:oz-upgrades-unsafe-allow-reachable": "delegatecall",
        "details": "Upgrade the implementation of the proxy to `newImplementation`, and subsequently execute the function call encoded in `data`. Calls {_authorizeUpgrade}. Emits an {Upgraded} event."
      }
    },
    "stateVariables": {
      "__gap": {
        "details": "This empty reserved space is put in place to allow future versions to add new variables without shifting down storage in the inheritance chain. See https://docs.openzeppelin.com/contracts/4.x/upgradeable#storage_gaps"
      }
    },
    "title": "MocCARC20: Moc Collateral Asset RC20",
    "version": 1
  },
  "userdoc": {
    "kind": "user",
    "methods": {
      "addPeggedToken((address,address,uint256,uint256,uint256,uint256,uint256))": {
        "notice": "add a Pegged Token to the protocol"
      },
      "calcCtargemaCA()": {
        "notice": "calculates target coverage adjusted by all Pegged Token's to Collateral Asset rate moving average"
      },
      "changeGovernor(address)": {
        "notice": "Change the contract's governor. Should be called through the old governance system"
      },
      "editPeggedToken((address,address,uint256,uint256,uint256,uint256,uint256))": {
        "notice": "modifies a Pegged Token of the protocol"
      },
      "evalLiquidation()": {
        "notice": "evaluates if liquidation threshold has been reached and liq is Enabled. If so forces contracts liquidation, blocking all mint & redeem operations. May emit a {ContractLiquidated} event."
      },
      "execSettlement()": {
        "notice": "this function is executed during settlement.  stores amount of locked AC by Pegged Tokens at this moment and distribute success fee"
      },
      "getBts()": {
        "notice": "get the number of blocks remaining for settlement"
      },
      "getCglb()": {
        "notice": "get bucket global coverage"
      },
      "getLckAC()": {
        "notice": "get amount of Collateral Asset locked by Pegged Token"
      },
      "getLeverageTC()": {
        "notice": "get Collateral Token leverage"
      },
      "getPACtp(uint256)": {
        "notice": "get how many Pegged Token equal 1 Collateral Asset"
      },
      "getPTCac()": {
        "notice": "get Collateral Token price"
      },
      "getTCAvailableToRedeem()": {
        "notice": "get amount of Collateral Token available to redeem"
      },
      "getTPAvailableToMint(uint256)": {
        "notice": "get amount of Pegged Token available to mint"
      },
      "getTotalACavailable()": {
        "notice": "get total Collateral Asset available"
      },
      "governor()": {
        "notice": "The address of the contract which governs this one"
      },
      "initialize((((address,address,address,address,address,uint256,uint256,uint256,uint256,uint256,uint256,uint256,uint256,uint256,uint256,uint256,uint256,uint256,uint256,address,uint256,uint256),address,address,address,uint256,address),address))": {
        "notice": "contract initializer"
      },
      "isLiquidationReached()": {
        "notice": "If liquidation is enabled, verifies if forced liquidation has been reached, checking if globalCoverage <= liquidation"
      },
      "liqRedeemTP(uint256)": {
        "notice": "Allow redeem on liquidation state, user Peg balance gets burned and he receives the equivalent AC given the liquidation frozen price."
      },
      "liqRedeemTPto(uint256,address)": {
        "notice": "Allow redeem on liquidation state, user Peg balance gets burned and he receives the equivalent AC given the liquidation frozen price."
      },
      "makeStoppable()": {
        "notice": "Switches ON the stoppability of the contract; if the contract was paused before making it unstoppable it will be paused again after calling this function"
      },
      "makeUnstoppable()": {
        "notice": "Switches OFF the stoppability of the contract; if the contract was paused it will no longer be so"
      },
      "mintTC(uint256,uint256)": {
        "notice": "caller sends Collateral Asset and receives Collateral Token Requires prior sender approval of Collateral Asset to this contract "
      },
      "mintTCViaVendor(uint256,uint256,address)": {
        "notice": "caller sends Collateral Asset and receives Collateral Token  `vendor_` receives a markup in Fee Token if possible or in qAC if not  Requires prior sender approval of Collateral Asset to this contract"
      },
      "mintTCandTP(uint256,uint256,uint256)": {
        "notice": "caller sends Collateral Asset and receives Collateral Token and Pegged Token  Requires prior sender approval of Collateral Asset to this contract  This operation is done without checking coverage  Collateral Token and Pegged Token are minted in equivalent proportions so that its price  and global coverage are not modified.  Reverts if qAC sent are insufficient."
      },
      "mintTCandTPViaVendor(uint256,uint256,uint256,address)": {
        "notice": "caller sends Collateral Asset and receives Collateral Token and Pegged Token  `vendor_` receives a markup in Fee Token if possible or in qAC if not  Requires prior sender approval of Collateral Asset to this contract  This operation is done without checking coverage  Collateral Token and Pegged Token are minted in equivalent proportions so that its price  and global coverage are not modified.  Reverts if qAC sent are insufficient."
      },
      "mintTCandTPto(uint256,uint256,uint256,address)": {
        "notice": "caller sends Collateral Asset and recipient receives Collateral Token and Pegged Token  Requires prior sender approval of Collateral Asset to this contract  This operation is done without checking coverage  Collateral Token and Pegged Token are minted in equivalent proportions so that its price  and global coverage are not modified.  Reverts if qAC sent are insufficient."
      },
      "mintTCandTPtoViaVendor(uint256,uint256,uint256,address,address)": {
        "notice": "caller sends Collateral Asset and recipient receives Collateral Token and Pegged Token  `vendor_` receives a markup in Fee Token if possible or in qAC if not  Requires prior sender approval of Collateral Asset to this contract  This operation is done without checking coverage  Collateral Token and Pegged Token are minted in equivalent proportions so that its price  and global coverage are not modified.  Reverts if qAC sent are insufficient."
      },
      "mintTCto(uint256,uint256,address)": {
        "notice": "caller sends Collateral Asset and recipient receives Collateral Token  Requires prior sender approval of Collateral Asset to this contract"
      },
      "mintTCtoViaVendor(uint256,uint256,address,address)": {
        "notice": "caller sends Collateral Asset and recipient receives Collateral Token  `vendor_` receives a markup in Fee Token if possible or in qAC if not   Requires prior sender approval of Collateral Asset to this contract"
      },
      "mintTP(uint256,uint256,uint256)": {
        "notice": "caller sends Collateral Asset and receives Pegged Token Requires prior sender approval of Collateral Asset to this contract "
      },
      "mintTPViaVendor(uint256,uint256,uint256,address)": {
        "notice": "caller sends Collateral Asset and receives Pegged Token  `vendor_` receives a markup in Fee Token if possible or in qAC if not   Requires prior sender approval of Collateral Asset to this contract"
      },
      "mintTPto(uint256,uint256,uint256,address)": {
        "notice": "caller sends Collateral Asset and recipient receives Pegged Token Requires prior sender approval of Collateral Asset to this contract "
      },
      "mintTPtoViaVendor(uint256,uint256,uint256,address,address)": {
        "notice": "caller sends Collateral Asset and recipient receives Pegged Token  `vendor_` receives a markup in Fee Token if possible or in qAC if not   Requires prior sender approval of Collateral Asset to this contract"
      },
      "pause()": {
        "notice": "Called by the owner to pause, triggers stopped state"
      },
      "paused()": {
        "notice": "Returns true if paused"
      },
      "redeemTC(uint256,uint256)": {
        "notice": "caller sends Collateral Token and receives Collateral Asset"
      },
      "redeemTCViaVendor(uint256,uint256,address)": {
        "notice": "caller sends Collateral Token and receives Collateral Asset  `vendor_` receives a markup in Fee Token if possible or in qAC if not"
      },
      "redeemTCandTP(uint256,uint256,uint256,uint256)": {
        "notice": "caller sends Collateral Token and Pegged Token and receives coinbase as Collateral Asset  This operation is done without checking coverage  Collateral Token and Pegged Token are redeemed in equivalent proportions so that its price  and global coverage are not modified.  Reverts if qTP sent are insufficient."
      },
      "redeemTCandTPViaVendor(uint256,uint256,uint256,uint256,address)": {
        "notice": "caller sends Collateral Token and Pegged Token and receives coinbase as Collateral Asset  `vendor_` receives a markup in Fee Token if possible or in qAC if not  This operation is done without checking coverage  Collateral Token and Pegged Token are redeemed in equivalent proportions so that its price  and global coverage are not modified.  Reverts if qTP sent are insufficient."
      },
      "redeemTCandTPto(uint256,uint256,uint256,uint256,address)": {
        "notice": "caller sends Collateral Token and Pegged Token and recipient receives Collateral Asset  This operation is done without checking coverage  Collateral Token and Pegged Token are redeemed in equivalent proportions so that its price  and global coverage are not modified.  Reverts if qTP sent are insufficient."
      },
      "redeemTCandTPtoViaVendor(uint256,uint256,uint256,uint256,address,address)": {
        "notice": "caller sends Collateral Token and Pegged Token and recipient receives Collateral Asset  `vendor_` receives a markup in Fee Token if possible or in qAC if not  This operation is done without checking coverage  Collateral Token and Pegged Token are redeemed in equivalent proportions so that its price  and global coverage are not modified.  Reverts if qTP sent are insufficient."
      },
      "redeemTCto(uint256,uint256,address)": {
        "notice": "caller sends Collateral Token and recipient receives Collateral Asset"
      },
      "redeemTCtoViaVendor(uint256,uint256,address,address)": {
        "notice": "caller sends Collateral Token and recipient receives Collateral Asset  `vendor_` receives a markup in Fee Token if possible or in qAC if not"
      },
      "redeemTP(uint256,uint256,uint256)": {
        "notice": "caller sends Pegged Token and receives Collateral Asset"
      },
      "redeemTPViaVendor(uint256,uint256,uint256,address)": {
        "notice": "caller sends Pegged Token and receives Collateral Asset  `vendor_` receives a markup in Fee Token if possible or in qAC if not"
      },
      "redeemTPto(uint256,uint256,uint256,address)": {
        "notice": "caller sends Pegged Token and recipient receives Collateral Asset"
      },
      "redeemTPtoViaVendor(uint256,uint256,uint256,address,address)": {
        "notice": "caller sends Pegged Token and recipient receives Collateral Asset  `vendor_` receives a markup in Fee Token if possible or in qAC if not"
      },
      "refreshACBalance()": {
        "notice": "Refreshes the AC holdings for the Bucket"
      },
      "setPauser(address)": {
        "notice": "Changes the address which is enable to pause this contract"
      },
      "shouldCalculateEma()": {
        "notice": "true if the necessary span has pass since last ema update"
      },
      "swapTCforTP(uint256,uint256,uint256,uint256)": {
        "notice": "caller sends Collateral Token and receives Pegged Token"
      },
      "swapTCforTPViaVendor(uint256,uint256,uint256,uint256,address)": {
        "notice": "caller sends Collateral Token and receives Pegged Token  `vendor_` receives a markup in Fee Token if possible or in qAC if not"
      },
      "swapTCforTPto(uint256,uint256,uint256,uint256,address)": {
        "notice": "caller sends Collateral Token and recipient receives Pegged Token"
      },
      "swapTCforTPtoViaVendor(uint256,uint256,uint256,uint256,address,address)": {
        "notice": "caller sends Collateral Token and recipient receives Pegged Token  `vendor_` receives a markup in Fee Token if possible or in qAC if not"
      },
      "swapTPforTC(uint256,uint256,uint256,uint256)": {
        "notice": "caller sends a Pegged Token and receives Collateral Token"
      },
      "swapTPforTCViaVendor(uint256,uint256,uint256,uint256,address)": {
        "notice": "caller sends a Pegged Token and receives Collateral Token  `vendor_` receives a markup in Fee Token if possible or in qAC if not"
      },
      "swapTPforTCto(uint256,uint256,uint256,uint256,address)": {
        "notice": "caller sends a Pegged Token and recipient receives Collateral Token"
      },
      "swapTPforTCtoViaVendor(uint256,uint256,uint256,uint256,address,address)": {
        "notice": "caller sends a Pegged Token and recipient receives Collateral Token  `vendor_` receives a markup in Fee Token if possible or in qAC if not"
      },
      "swapTPforTP(uint256,uint256,uint256,uint256,uint256)": {
        "notice": "caller sends a Pegged Token and receives another one"
      },
      "swapTPforTPViaVendor(uint256,uint256,uint256,uint256,uint256,address)": {
        "notice": "caller sends a Pegged Token and receives another one  `vendor_` receives a markup in Fee Token if possible or in qAC if not"
      },
      "swapTPforTPto(uint256,uint256,uint256,uint256,uint256,address)": {
        "notice": "caller sends a Pegged Token and recipient receives another one"
      },
      "swapTPforTPtoViaVendor(uint256,uint256,uint256,uint256,uint256,address,address)": {
        "notice": "caller sends a Pegged Token and recipient receives another one  `vendor_` receives a markup in Fee Token if possible or in qAC if not"
      },
      "tcHoldersInterestPayment()": {
        "notice": "executes the interest payment of the TC holders  can only be executed after a block span"
      },
      "unpause()": {
        "notice": "Called by the owner to unpause, returns to normal state"
      },
      "updateEmas()": {
        "notice": "If time, calculates the EMA for all the Pegged Token prices."
      }
    },
    "notice": "Moc protocol implementation using a RC20 as Collateral Asset.",
    "version": 1
  },
  "storageLayout": {
    "storage": [
      {
        "astId": 950,
        "contract": "contracts/collateral/rc20/MocCARC20.sol:MocCARC20",
        "label": "_initialized",
        "offset": 0,
        "slot": "0",
        "type": "t_uint8"
      },
      {
        "astId": 953,
        "contract": "contracts/collateral/rc20/MocCARC20.sol:MocCARC20",
        "label": "_initializing",
        "offset": 1,
        "slot": "0",
        "type": "t_bool"
      },
      {
        "astId": 932,
        "contract": "contracts/collateral/rc20/MocCARC20.sol:MocCARC20",
        "label": "__gap",
        "offset": 0,
        "slot": "1",
        "type": "t_array(t_uint256)50_storage"
      },
      {
        "astId": 1247,
        "contract": "contracts/collateral/rc20/MocCARC20.sol:MocCARC20",
        "label": "__gap",
        "offset": 0,
        "slot": "51",
        "type": "t_array(t_uint256)50_storage"
      },
      {
        "astId": 26716,
        "contract": "contracts/collateral/rc20/MocCARC20.sol:MocCARC20",
        "label": "__gap",
        "offset": 0,
        "slot": "101",
        "type": "t_array(t_uint256)50_storage"
      },
      {
        "astId": 24382,
        "contract": "contracts/collateral/rc20/MocCARC20.sol:MocCARC20",
        "label": "governor",
        "offset": 0,
        "slot": "151",
        "type": "t_contract(IGovernor)25273"
      },
      {
        "astId": 24453,
        "contract": "contracts/collateral/rc20/MocCARC20.sol:MocCARC20",
        "label": "__gap",
        "offset": 0,
        "slot": "152",
        "type": "t_array(t_uint256)50_storage"
      },
      {
        "astId": 24522,
        "contract": "contracts/collateral/rc20/MocCARC20.sol:MocCARC20",
        "label": "stoppable",
        "offset": 0,
        "slot": "202",
        "type": "t_bool"
      },
      {
        "astId": 24524,
        "contract": "contracts/collateral/rc20/MocCARC20.sol:MocCARC20",
        "label": "_paused",
        "offset": 1,
        "slot": "202",
        "type": "t_bool"
      },
      {
        "astId": 24526,
        "contract": "contracts/collateral/rc20/MocCARC20.sol:MocCARC20",
        "label": "pauser",
        "offset": 2,
        "slot": "202",
        "type": "t_address"
      },
      {
        "astId": 24685,
        "contract": "contracts/collateral/rc20/MocCARC20.sol:MocCARC20",
        "label": "__gap",
        "offset": 0,
        "slot": "203",
        "type": "t_array(t_uint256)50_storage"
      },
      {
        "astId": 24504,
        "contract": "contracts/collateral/rc20/MocCARC20.sol:MocCARC20",
        "label": "__gap",
        "offset": 0,
        "slot": "253",
        "type": "t_array(t_uint256)50_storage"
      },
      {
        "astId": 1389,
        "contract": "contracts/collateral/rc20/MocCARC20.sol:MocCARC20",
        "label": "_status",
        "offset": 0,
        "slot": "303",
        "type": "t_uint256"
      },
      {
        "astId": 1458,
        "contract": "contracts/collateral/rc20/MocCARC20.sol:MocCARC20",
        "label": "__gap",
        "offset": 0,
        "slot": "304",
        "type": "t_array(t_uint256)49_storage"
      },
      {
        "astId": 15314,
        "contract": "contracts/collateral/rc20/MocCARC20.sol:MocCARC20",
        "label": "feeToken",
        "offset": 0,
        "slot": "353",
        "type": "t_contract(IERC20)6209"
      },
      {
        "astId": 15317,
        "contract": "contracts/collateral/rc20/MocCARC20.sol:MocCARC20",
        "label": "feeTokenPriceProvider",
        "offset": 0,
        "slot": "354",
        "type": "t_contract(IPriceProvider)25311"
      },
      {
        "astId": 15319,
        "contract": "contracts/collateral/rc20/MocCARC20.sol:MocCARC20",
        "label": "nACcb",
        "offset": 0,
        "slot": "355",
        "type": "t_uint256"
      },
      {
        "astId": 15321,
        "contract": "contracts/collateral/rc20/MocCARC20.sol:MocCARC20",
        "label": "nACioucb",
        "offset": 0,
        "slot": "356",
        "type": "t_uint256"
      },
      {
        "astId": 15324,
        "contract": "contracts/collateral/rc20/MocCARC20.sol:MocCARC20",
        "label": "tcToken",
        "offset": 0,
        "slot": "357",
        "type": "t_contract(MocTC)26621"
      },
      {
        "astId": 15326,
        "contract": "contracts/collateral/rc20/MocCARC20.sol:MocCARC20",
        "label": "nTCcb",
        "offset": 0,
        "slot": "358",
        "type": "t_uint256"
      },
      {
        "astId": 15330,
        "contract": "contracts/collateral/rc20/MocCARC20.sol:MocCARC20",
        "label": "tpTokens",
        "offset": 0,
        "slot": "359",
        "type": "t_array(t_contract(IMocRC20)25299)dyn_storage"
      },
      {
        "astId": 15335,
        "contract": "contracts/collateral/rc20/MocCARC20.sol:MocCARC20",
        "label": "peggedTokenIndex",
        "offset": 0,
        "slot": "360",
        "type": "t_mapping(t_address,t_struct(PeggedTokenIndex)15266_storage)"
      },
      {
        "astId": 15339,
        "contract": "contracts/collateral/rc20/MocCARC20.sol:MocCARC20",
        "label": "pegContainer",
        "offset": 0,
        "slot": "361",
        "type": "t_array(t_struct(PegContainerItem)15261_storage)dyn_storage"
      },
      {
        "astId": 15342,
        "contract": "contracts/collateral/rc20/MocCARC20.sol:MocCARC20",
        "label": "tpLiqPrices",
        "offset": 0,
        "slot": "362",
        "type": "t_array(t_uint256)dyn_storage"
      },
      {
        "astId": 15344,
        "contract": "contracts/collateral/rc20/MocCARC20.sol:MocCARC20",
        "label": "successFee",
        "offset": 0,
        "slot": "363",
        "type": "t_uint256"
      },
      {
        "astId": 15346,
        "contract": "contracts/collateral/rc20/MocCARC20.sol:MocCARC20",
        "label": "appreciationFactor",
        "offset": 0,
        "slot": "364",
        "type": "t_uint256"
      },
      {
        "astId": 15348,
        "contract": "contracts/collateral/rc20/MocCARC20.sol:MocCARC20",
        "label": "feeRetainer",
        "offset": 0,
        "slot": "365",
        "type": "t_uint256"
      },
      {
        "astId": 15350,
        "contract": "contracts/collateral/rc20/MocCARC20.sol:MocCARC20",
        "label": "tcMintFee",
        "offset": 0,
        "slot": "366",
        "type": "t_uint256"
      },
      {
        "astId": 15352,
        "contract": "contracts/collateral/rc20/MocCARC20.sol:MocCARC20",
        "label": "tcRedeemFee",
        "offset": 0,
        "slot": "367",
        "type": "t_uint256"
      },
      {
        "astId": 15354,
        "contract": "contracts/collateral/rc20/MocCARC20.sol:MocCARC20",
        "label": "swapTPforTPFee",
        "offset": 0,
        "slot": "368",
        "type": "t_uint256"
      },
      {
        "astId": 15356,
        "contract": "contracts/collateral/rc20/MocCARC20.sol:MocCARC20",
        "label": "swapTPforTCFee",
        "offset": 0,
        "slot": "369",
        "type": "t_uint256"
      },
      {
        "astId": 15358,
        "contract": "contracts/collateral/rc20/MocCARC20.sol:MocCARC20",
        "label": "swapTCforTPFee",
        "offset": 0,
        "slot": "370",
        "type": "t_uint256"
      },
      {
        "astId": 15360,
        "contract": "contracts/collateral/rc20/MocCARC20.sol:MocCARC20",
        "label": "redeemTCandTPFee",
        "offset": 0,
        "slot": "371",
        "type": "t_uint256"
      },
      {
        "astId": 15362,
        "contract": "contracts/collateral/rc20/MocCARC20.sol:MocCARC20",
        "label": "mintTCandTPFee",
        "offset": 0,
        "slot": "372",
        "type": "t_uint256"
      },
      {
        "astId": 15364,
        "contract": "contracts/collateral/rc20/MocCARC20.sol:MocCARC20",
        "label": "feeTokenPct",
        "offset": 0,
        "slot": "373",
        "type": "t_uint256"
      },
      {
        "astId": 15367,
        "contract": "contracts/collateral/rc20/MocCARC20.sol:MocCARC20",
        "label": "tpMintFee",
        "offset": 0,
        "slot": "374",
        "type": "t_array(t_uint256)dyn_storage"
      },
      {
        "astId": 15370,
        "contract": "contracts/collateral/rc20/MocCARC20.sol:MocCARC20",
        "label": "tpRedeemFee",
        "offset": 0,
        "slot": "375",
        "type": "t_array(t_uint256)dyn_storage"
      },
      {
        "astId": 15372,
        "contract": "contracts/collateral/rc20/MocCARC20.sol:MocCARC20",
        "label": "mocFeeFlowAddress",
        "offset": 0,
        "slot": "376",
        "type": "t_address"
      },
      {
        "astId": 15374,
        "contract": "contracts/collateral/rc20/MocCARC20.sol:MocCARC20",
        "label": "mocAppreciationBeneficiaryAddress",
        "offset": 0,
        "slot": "377",
        "type": "t_address"
      },
      {
        "astId": 15377,
        "contract": "contracts/collateral/rc20/MocCARC20.sol:MocCARC20",
        "label": "tpCtarg",
        "offset": 0,
        "slot": "378",
        "type": "t_array(t_uint256)dyn_storage"
      },
      {
        "astId": 15379,
        "contract": "contracts/collateral/rc20/MocCARC20.sol:MocCARC20",
        "label": "protThrld",
        "offset": 0,
        "slot": "379",
        "type": "t_uint256"
      },
      {
        "astId": 15381,
        "contract": "contracts/collateral/rc20/MocCARC20.sol:MocCARC20",
        "label": "liqThrld",
        "offset": 0,
        "slot": "380",
        "type": "t_uint256"
      },
      {
        "astId": 15383,
        "contract": "contracts/collateral/rc20/MocCARC20.sol:MocCARC20",
        "label": "liqEnabled",
        "offset": 0,
        "slot": "381",
        "type": "t_bool"
      },
      {
        "astId": 15385,
        "contract": "contracts/collateral/rc20/MocCARC20.sol:MocCARC20",
        "label": "liquidated",
        "offset": 1,
        "slot": "381",
        "type": "t_bool"
      },
      {
        "astId": 15387,
        "contract": "contracts/collateral/rc20/MocCARC20.sol:MocCARC20",
        "label": "bes",
        "offset": 0,
        "slot": "382",
        "type": "t_uint256"
      },
      {
        "astId": 15389,
        "contract": "contracts/collateral/rc20/MocCARC20.sol:MocCARC20",
        "label": "bns",
        "offset": 0,
        "slot": "383",
        "type": "t_uint256"
      },
      {
        "astId": 15392,
        "contract": "contracts/collateral/rc20/MocCARC20.sol:MocCARC20",
        "label": "tpiou",
        "offset": 0,
        "slot": "384",
        "type": "t_array(t_int256)dyn_storage"
      },
      {
        "astId": 15395,
        "contract": "contracts/collateral/rc20/MocCARC20.sol:MocCARC20",
        "label": "pACtpLstop",
        "offset": 0,
        "slot": "385",
        "type": "t_array(t_uint256)dyn_storage"
      },
      {
        "astId": 15397,
        "contract": "contracts/collateral/rc20/MocCARC20.sol:MocCARC20",
        "label": "tcInterestCollectorAddress",
        "offset": 0,
        "slot": "386",
        "type": "t_address"
      },
      {
        "astId": 15399,
        "contract": "contracts/collateral/rc20/MocCARC20.sol:MocCARC20",
        "label": "tcInterestRate",
        "offset": 0,
        "slot": "387",
        "type": "t_uint256"
      },
      {
        "astId": 15401,
        "contract": "contracts/collateral/rc20/MocCARC20.sol:MocCARC20",
        "label": "tcInterestPaymentBlockSpan",
        "offset": 0,
        "slot": "388",
        "type": "t_uint256"
      },
      {
        "astId": 15403,
        "contract": "contracts/collateral/rc20/MocCARC20.sol:MocCARC20",
        "label": "nextTCInterestPayment",
        "offset": 0,
        "slot": "389",
        "type": "t_uint256"
      },
      {
        "astId": 16895,
        "contract": "contracts/collateral/rc20/MocCARC20.sol:MocCARC20",
        "label": "__gap",
        "offset": 0,
        "slot": "390",
        "type": "t_array(t_uint256)50_storage"
      },
      {
        "astId": 20938,
        "contract": "contracts/collateral/rc20/MocCARC20.sol:MocCARC20",
        "label": "tpEma",
        "offset": 0,
        "slot": "440",
        "type": "t_array(t_struct(EmaItem)20934_storage)dyn_storage"
      },
      {
        "astId": 20940,
        "contract": "contracts/collateral/rc20/MocCARC20.sol:MocCARC20",
        "label": "nextEmaCalculation",
        "offset": 0,
        "slot": "441",
        "type": "t_uint256"
      },
      {
        "astId": 20942,
        "contract": "contracts/collateral/rc20/MocCARC20.sol:MocCARC20",
        "label": "emaCalculationBlockSpan",
        "offset": 0,
        "slot": "442",
        "type": "t_uint256"
      },
      {
        "astId": 21314,
        "contract": "contracts/collateral/rc20/MocCARC20.sol:MocCARC20",
        "label": "__gap",
        "offset": 0,
        "slot": "443",
        "type": "t_array(t_uint256)50_storage"
      },
      {
        "astId": 16923,
        "contract": "contracts/collateral/rc20/MocCARC20.sol:MocCARC20",
        "label": "mocVendors",
        "offset": 0,
        "slot": "493",
        "type": "t_contract(MocVendors)26937"
      },
      {
        "astId": 17396,
        "contract": "contracts/collateral/rc20/MocCARC20.sol:MocCARC20",
        "label": "__gap",
        "offset": 0,
        "slot": "494",
        "type": "t_array(t_uint256)50_storage"
      },
      {
        "astId": 17567,
        "contract": "contracts/collateral/rc20/MocCARC20.sol:MocCARC20",
        "label": "mocCoreExpansion",
        "offset": 0,
        "slot": "544",
        "type": "t_address"
      },
      {
        "astId": 20060,
        "contract": "contracts/collateral/rc20/MocCARC20.sol:MocCARC20",
        "label": "__gap",
        "offset": 0,
        "slot": "545",
        "type": "t_array(t_uint256)50_storage"
      },
      {
        "astId": 14161,
        "contract": "contracts/collateral/rc20/MocCARC20.sol:MocCARC20",
        "label": "acToken",
        "offset": 0,
        "slot": "595",
        "type": "t_contract(IERC20)6209"
      },
      {
        "astId": 15222,
        "contract": "contracts/collateral/rc20/MocCARC20.sol:MocCARC20",
        "label": "__gap",
        "offset": 0,
        "slot": "596",
        "type": "t_array(t_uint256)50_storage"
      }
    ],
    "types": {
      "t_address": {
        "encoding": "inplace",
        "label": "address",
        "numberOfBytes": "20"
      },
      "t_array(t_contract(IMocRC20)25299)dyn_storage": {
        "base": "t_contract(IMocRC20)25299",
        "encoding": "dynamic_array",
        "label": "contract IMocRC20[]",
        "numberOfBytes": "32"
      },
      "t_array(t_int256)dyn_storage": {
        "base": "t_int256",
        "encoding": "dynamic_array",
        "label": "int256[]",
        "numberOfBytes": "32"
      },
      "t_array(t_struct(EmaItem)20934_storage)dyn_storage": {
        "base": "t_struct(EmaItem)20934_storage",
        "encoding": "dynamic_array",
        "label": "struct MocEma.EmaItem[]",
        "numberOfBytes": "32"
      },
      "t_array(t_struct(PegContainerItem)15261_storage)dyn_storage": {
        "base": "t_struct(PegContainerItem)15261_storage",
        "encoding": "dynamic_array",
        "label": "struct MocBaseBucket.PegContainerItem[]",
        "numberOfBytes": "32"
      },
      "t_array(t_uint256)49_storage": {
        "base": "t_uint256",
        "encoding": "inplace",
        "label": "uint256[49]",
        "numberOfBytes": "1568"
      },
      "t_array(t_uint256)50_storage": {
        "base": "t_uint256",
        "encoding": "inplace",
        "label": "uint256[50]",
        "numberOfBytes": "1600"
      },
      "t_array(t_uint256)dyn_storage": {
        "base": "t_uint256",
        "encoding": "dynamic_array",
        "label": "uint256[]",
        "numberOfBytes": "32"
      },
      "t_bool": {
        "encoding": "inplace",
        "label": "bool",
        "numberOfBytes": "1"
      },
      "t_contract(IERC20)6209": {
        "encoding": "inplace",
        "label": "contract IERC20",
        "numberOfBytes": "20"
      },
      "t_contract(IGovernor)25273": {
        "encoding": "inplace",
        "label": "contract IGovernor",
        "numberOfBytes": "20"
      },
      "t_contract(IMocRC20)25299": {
        "encoding": "inplace",
        "label": "contract IMocRC20",
        "numberOfBytes": "20"
      },
      "t_contract(IPriceProvider)25311": {
        "encoding": "inplace",
        "label": "contract IPriceProvider",
        "numberOfBytes": "20"
      },
      "t_contract(MocTC)26621": {
        "encoding": "inplace",
        "label": "contract MocTC",
        "numberOfBytes": "20"
      },
      "t_contract(MocVendors)26937": {
        "encoding": "inplace",
        "label": "contract MocVendors",
        "numberOfBytes": "20"
      },
      "t_int256": {
        "encoding": "inplace",
        "label": "int256",
        "numberOfBytes": "32"
      },
      "t_mapping(t_address,t_struct(PeggedTokenIndex)15266_storage)": {
        "encoding": "mapping",
        "key": "t_address",
        "label": "mapping(address => struct MocBaseBucket.PeggedTokenIndex)",
        "numberOfBytes": "32",
        "value": "t_struct(PeggedTokenIndex)15266_storage"
      },
      "t_struct(EmaItem)20934_storage": {
        "encoding": "inplace",
        "label": "struct MocEma.EmaItem",
        "members": [
          {
            "astId": 20931,
            "contract": "contracts/collateral/rc20/MocCARC20.sol:MocCARC20",
            "label": "ema",
            "offset": 0,
            "slot": "0",
            "type": "t_uint256"
          },
          {
            "astId": 20933,
            "contract": "contracts/collateral/rc20/MocCARC20.sol:MocCARC20",
            "label": "sf",
            "offset": 0,
            "slot": "1",
            "type": "t_uint256"
          }
        ],
        "numberOfBytes": "64"
      },
      "t_struct(PegContainerItem)15261_storage": {
        "encoding": "inplace",
        "label": "struct MocBaseBucket.PegContainerItem",
        "members": [
          {
            "astId": 15257,
            "contract": "contracts/collateral/rc20/MocCARC20.sol:MocCARC20",
            "label": "nTP",
            "offset": 0,
            "slot": "0",
            "type": "t_uint256"
          },
          {
            "astId": 15260,
            "contract": "contracts/collateral/rc20/MocCARC20.sol:MocCARC20",
            "label": "priceProvider",
            "offset": 0,
            "slot": "1",
            "type": "t_contract(IPriceProvider)25311"
          }
        ],
        "numberOfBytes": "64"
      },
      "t_struct(PeggedTokenIndex)15266_storage": {
        "encoding": "inplace",
        "label": "struct MocBaseBucket.PeggedTokenIndex",
        "members": [
          {
            "astId": 15263,
            "contract": "contracts/collateral/rc20/MocCARC20.sol:MocCARC20",
            "label": "index",
            "offset": 0,
            "slot": "0",
            "type": "t_uint256"
          },
          {
            "astId": 15265,
            "contract": "contracts/collateral/rc20/MocCARC20.sol:MocCARC20",
            "label": "exists",
            "offset": 0,
            "slot": "1",
            "type": "t_bool"
          }
        ],
        "numberOfBytes": "64"
      },
      "t_uint256": {
        "encoding": "inplace",
        "label": "uint256",
        "numberOfBytes": "32"
      },
      "t_uint8": {
        "encoding": "inplace",
        "label": "uint8",
        "numberOfBytes": "1"
      }
    }
  }
}